{
  "_format": "hh-sol-artifact-1",
  "contractName": "MockCurvePool",
  "sourceName": "contracts/truefi/mock/MockCurvePool.sol",
  "abi": [
    {
      "inputs": [
        {
          "internalType": "uint256[4]",
          "name": "amounts",
          "type": "uint256[4]"
        },
        {
          "internalType": "uint256",
          "name": "",
          "type": "uint256"
        }
      ],
      "name": "add_liquidity",
      "outputs": [],
      "stateMutability": "nonpayable",
      "type": "function"
    },
    {
      "inputs": [
        {
          "internalType": "uint256",
          "name": "",
          "type": "uint256"
        },
        {
          "internalType": "int128",
          "name": "",
          "type": "int128"
        }
      ],
      "name": "calc_withdraw_one_coin",
      "outputs": [
        {
          "internalType": "uint256",
          "name": "",
          "type": "uint256"
        }
      ],
      "stateMutability": "view",
      "type": "function"
    },
    {
      "inputs": [
        {
          "internalType": "int128",
          "name": "",
          "type": "int128"
        }
      ],
      "name": "coins",
      "outputs": [
        {
          "internalType": "contract IYToken",
          "name": "",
          "type": "address"
        }
      ],
      "stateMutability": "view",
      "type": "function"
    },
    {
      "inputs": [],
      "name": "curve",
      "outputs": [
        {
          "internalType": "contract ICurve",
          "name": "",
          "type": "address"
        }
      ],
      "stateMutability": "view",
      "type": "function"
    },
    {
      "inputs": [
        {
          "internalType": "contract IERC20",
          "name": "_token",
          "type": "address"
        }
      ],
      "name": "initialize",
      "outputs": [],
      "stateMutability": "nonpayable",
      "type": "function"
    },
    {
      "inputs": [
        {
          "internalType": "uint256",
          "name": "_token_amount",
          "type": "uint256"
        },
        {
          "internalType": "int128",
          "name": "",
          "type": "int128"
        },
        {
          "internalType": "uint256",
          "name": "",
          "type": "uint256"
        },
        {
          "internalType": "bool",
          "name": "",
          "type": "bool"
        }
      ],
      "name": "remove_liquidity_one_coin",
      "outputs": [],
      "stateMutability": "nonpayable",
      "type": "function"
    },
    {
      "inputs": [
        {
          "internalType": "uint256",
          "name": "price",
          "type": "uint256"
        }
      ],
      "name": "set_withdraw_price",
      "outputs": [],
      "stateMutability": "nonpayable",
      "type": "function"
    },
    {
      "inputs": [],
      "name": "token",
      "outputs": [
        {
          "internalType": "contract IERC20",
          "name": "",
          "type": "address"
        }
      ],
      "stateMutability": "view",
      "type": "function"
    }
  ],
  "bytecode": "0x608060405234801561001057600080fd5b50614155806100206000396000f3fe608060405234801561001057600080fd5b50600436106100885760003560e01c80637165485d1161005b5780637165485d146101ec578063c4d66de814610236578063cc2b27d71461027a578063fc0c546a146102c957610088565b8063029b2f341461008d57806323746eb8146100fc5780633142dc361461016d578063517a55a31461019b575b600080fd5b6100fa600480360360a08110156100a357600080fd5b8101908080608001906004806020026040519081016040528092919082600460200280828437600081840152601f19601f820116905080830192505050505050919291929080359060200190929190505050610313565b005b61012b6004803603602081101561011257600080fd5b810190808035600f0b90602001909291905050506105c8565b604051808273ffffffffffffffffffffffffffffffffffffffff1673ffffffffffffffffffffffffffffffffffffffff16815260200191505060405180910390f35b6101996004803603602081101561018357600080fd5b81019080803590602001909291905050506105f4565b005b6101ea600480360360808110156101b157600080fd5b81019080803590602001909291908035600f0b906020019092919080359060200190929190803515159060200190929190505050610684565b005b6101f46109ca565b604051808273ffffffffffffffffffffffffffffffffffffffff1673ffffffffffffffffffffffffffffffffffffffff16815260200191505060405180910390f35b6102786004803603602081101561024c57600080fd5b81019080803573ffffffffffffffffffffffffffffffffffffffff1690602001909291905050506109f4565b005b6102b36004803603604081101561029057600080fd5b81019080803590602001909291908035600f0b9060200190929190505050610c70565b6040518082815260200191505060405180910390f35b6102d1610d1d565b604051808273ffffffffffffffffffffffffffffffffffffffff1673ffffffffffffffffffffffffffffffffffffffff16815260200191505060405180910390f35b603360009054906101000a900473ffffffffffffffffffffffffffffffffffffffff1673ffffffffffffffffffffffffffffffffffffffff166323b872dd33308560036004811061036057fe5b60200201516040518463ffffffff1660e01b8152600401808473ffffffffffffffffffffffffffffffffffffffff1673ffffffffffffffffffffffffffffffffffffffff1681526020018373ffffffffffffffffffffffffffffffffffffffff1673ffffffffffffffffffffffffffffffffffffffff1681526020018281526020019350505050602060405180830381600087803b15801561040157600080fd5b505af1158015610415573d6000803e3d6000fd5b505050506040513d602081101561042b57600080fd5b810190808051906020019092919050505050603460009054906101000a900473ffffffffffffffffffffffffffffffffffffffff1673ffffffffffffffffffffffffffffffffffffffff166340c10f1933603560009054906101000a900473ffffffffffffffffffffffffffffffffffffffff1673ffffffffffffffffffffffffffffffffffffffff1663872697296040518163ffffffff1660e01b815260040160206040518083038186803b1580156104e457600080fd5b505afa1580156104f8573d6000803e3d6000fd5b505050506040513d602081101561050e57600080fd5b8101908080519060200190929190505050670de0b6b3a76400008660036004811061053557fe5b6020020151028161054257fe5b046040518363ffffffff1660e01b8152600401808373ffffffffffffffffffffffffffffffffffffffff1673ffffffffffffffffffffffffffffffffffffffff16815260200182815260200192505050600060405180830381600087803b1580156105ac57600080fd5b505af11580156105c0573d6000803e3d6000fd5b505050505050565b6000603660009054906101000a900473ffffffffffffffffffffffffffffffffffffffff169050919050565b603560009054906101000a900473ffffffffffffffffffffffffffffffffffffffff1673ffffffffffffffffffffffffffffffffffffffff16633142dc36826040518263ffffffff1660e01b815260040180828152602001915050600060405180830381600087803b15801561066957600080fd5b505af115801561067d573d6000803e3d6000fd5b5050505050565b603460009054906101000a900473ffffffffffffffffffffffffffffffffffffffff1673ffffffffffffffffffffffffffffffffffffffff166323b872dd3330876040518463ffffffff1660e01b8152600401808473ffffffffffffffffffffffffffffffffffffffff1673ffffffffffffffffffffffffffffffffffffffff1681526020018373ffffffffffffffffffffffffffffffffffffffff1673ffffffffffffffffffffffffffffffffffffffff1681526020018281526020019350505050602060405180830381600087803b15801561076157600080fd5b505af1158015610775573d6000803e3d6000fd5b505050506040513d602081101561078b57600080fd5b810190808051906020019092919050505050603460009054906101000a900473ffffffffffffffffffffffffffffffffffffffff1673ffffffffffffffffffffffffffffffffffffffff166342966c68856040518263ffffffff1660e01b815260040180828152602001915050600060405180830381600087803b15801561081257600080fd5b505af1158015610826573d6000803e3d6000fd5b50505050603360009054906101000a900473ffffffffffffffffffffffffffffffffffffffff1673ffffffffffffffffffffffffffffffffffffffff1663a9059cbb33670de0b6b3a7640000603560009054906101000a900473ffffffffffffffffffffffffffffffffffffffff1673ffffffffffffffffffffffffffffffffffffffff1663872697296040518163ffffffff1660e01b815260040160206040518083038186803b1580156108da57600080fd5b505afa1580156108ee573d6000803e3d6000fd5b505050506040513d602081101561090457600080fd5b810190808051906020019092919050505088028161091e57fe5b046040518363ffffffff1660e01b8152600401808373ffffffffffffffffffffffffffffffffffffffff1673ffffffffffffffffffffffffffffffffffffffff16815260200182815260200192505050602060405180830381600087803b15801561098857600080fd5b505af115801561099c573d6000803e3d6000fd5b505050506040513d60208110156109b257600080fd5b81019080805190602001909291905050505050505050565b6000603560009054906101000a900473ffffffffffffffffffffffffffffffffffffffff16905090565b600060019054906101000a900460ff1680610a135750610a12610d47565b5b80610a2a57506000809054906101000a900460ff16155b610a7f576040517f08c379a000000000000000000000000000000000000000000000000000000000815260040180806020018281038252602e8152602001806140f2602e913960400191505060405180910390fd5b60008060019054906101000a900460ff161590508015610acf576001600060016101000a81548160ff02191690831515021790555060016000806101000a81548160ff0219169083151502179055505b81603360006101000a81548173ffffffffffffffffffffffffffffffffffffffff021916908373ffffffffffffffffffffffffffffffffffffffff160217905550604051610b1c90610d5e565b604051809103906000f080158015610b38573d6000803e3d6000fd5b50603460006101000a81548173ffffffffffffffffffffffffffffffffffffffff021916908373ffffffffffffffffffffffffffffffffffffffff160217905550604051610b8590610d6b565b604051809103906000f080158015610ba1573d6000803e3d6000fd5b50603560006101000a81548173ffffffffffffffffffffffffffffffffffffffff021916908373ffffffffffffffffffffffffffffffffffffffff160217905550604051610bee90610d78565b604051809103906000f080158015610c0a573d6000803e3d6000fd5b50603660006101000a81548173ffffffffffffffffffffffffffffffffffffffff021916908373ffffffffffffffffffffffffffffffffffffffff1602179055508015610c6c5760008060016101000a81548160ff0219169083151502179055505b5050565b6000603560009054906101000a900473ffffffffffffffffffffffffffffffffffffffff1673ffffffffffffffffffffffffffffffffffffffff1663872697296040518163ffffffff1660e01b815260040160206040518083038186803b158015610cda57600080fd5b505afa158015610cee573d6000803e3d6000fd5b505050506040513d6020811015610d0457600080fd5b8101908080519060200190929190505050905092915050565b6000603460009054906101000a900473ffffffffffffffffffffffffffffffffffffffff16905090565b6000803090506000813b9050600081149250505090565b6118a480610d8683390190565b6101eb8061262a83390190565b6118dd806128158339019056fe608060405234801561001057600080fd5b50611884806100206000396000f3fe608060405234801561001057600080fd5b506004361061012c5760003560e01c80636fcfff45116100ad578063a457c2d711610071578063a457c2d71461064d578063a9059cbb146106b3578063a91ee0dc14610719578063dd62ed3e1461075d578063f1127ed8146107d55761012c565b80636fcfff451461046c57806370a08231146104d05780637b103999146105285780637ecebe001461057257806395d89b41146105ca5761012c565b8063313ce567116100f4578063313ce567146102e2578063395093511461030657806340c10f191461036c57806342966c68146103ba578063587cde1e146103e85761012c565b806306fdde0314610131578063095ea7b3146101b457806318160ddd1461021a57806323b872dd146102385780632e440403146102be575b600080fd5b61013961086c565b6040518080602001828103825283818151815260200191508051906020019080838360005b8381101561017957808201518184015260208101905061015e565b50505050905090810190601f1680156101a65780820380516001836020036101000a031916815260200191505b509250505060405180910390f35b610200600480360360408110156101ca57600080fd5b81019080803573ffffffffffffffffffffffffffffffffffffffff169060200190929190803590602001909291905050506108a9565b604051808215151515815260200191505060405180910390f35b6102226108c7565b6040518082815260200191505060405180910390f35b6102a46004803603606081101561024e57600080fd5b81019080803573ffffffffffffffffffffffffffffffffffffffff169060200190929190803573ffffffffffffffffffffffffffffffffffffffff169060200190929190803590602001909291905050506108cd565b604051808215151515815260200191505060405180910390f35b6102c66109a6565b604051808260ff1660ff16815260200191505060405180910390f35b6102ea6109af565b604051808260ff1660ff16815260200191505060405180910390f35b6103526004803603604081101561031c57600080fd5b81019080803573ffffffffffffffffffffffffffffffffffffffff169060200190929190803590602001909291905050506109b8565b604051808215151515815260200191505060405180910390f35b6103b86004803603604081101561038257600080fd5b81019080803573ffffffffffffffffffffffffffffffffffffffff16906020019092919080359060200190929190505050610a6b565b005b6103e6600480360360208110156103d057600080fd5b8101908080359060200190929190505050610a79565b005b61042a600480360360208110156103fe57600080fd5b81019080803573ffffffffffffffffffffffffffffffffffffffff169060200190929190505050610a86565b604051808273ffffffffffffffffffffffffffffffffffffffff1673ffffffffffffffffffffffffffffffffffffffff16815260200191505060405180910390f35b6104ae6004803603602081101561048257600080fd5b81019080803573ffffffffffffffffffffffffffffffffffffffff169060200190929190505050610ab9565b604051808263ffffffff1663ffffffff16815260200191505060405180910390f35b610512600480360360208110156104e657600080fd5b81019080803573ffffffffffffffffffffffffffffffffffffffff169060200190929190505050610adc565b6040518082815260200191505060405180910390f35b610530610af4565b604051808273ffffffffffffffffffffffffffffffffffffffff1673ffffffffffffffffffffffffffffffffffffffff16815260200191505060405180910390f35b6105b46004803603602081101561058857600080fd5b81019080803573ffffffffffffffffffffffffffffffffffffffff169060200190929190505050610b1e565b6040518082815260200191505060405180910390f35b6105d2610b36565b6040518080602001828103825283818151815260200191508051906020019080838360005b838110156106125780820151818401526020810190506105f7565b50505050905090810190601f16801561063f5780820380516001836020036101000a031916815260200191505b509250505060405180910390f35b6106996004803603604081101561066357600080fd5b81019080803573ffffffffffffffffffffffffffffffffffffffff16906020019092919080359060200190929190505050610b73565b604051808215151515815260200191505060405180910390f35b6106ff600480360360408110156106c957600080fd5b81019080803573ffffffffffffffffffffffffffffffffffffffff16906020019092919080359060200190929190505050610c40565b604051808215151515815260200191505060405180910390f35b61075b6004803603602081101561072f57600080fd5b81019080803573ffffffffffffffffffffffffffffffffffffffff169060200190929190505050610c5e565b005b6107bf6004803603604081101561077357600080fd5b81019080803573ffffffffffffffffffffffffffffffffffffffff169060200190929190803573ffffffffffffffffffffffffffffffffffffffff169060200190929190505050610ca2565b6040518082815260200191505060405180910390f35b610827600480360360408110156107eb57600080fd5b81019080803573ffffffffffffffffffffffffffffffffffffffff169060200190929190803563ffffffff169060200190929190505050610cc7565b604051808363ffffffff1663ffffffff168152602001826bffffffffffffffffffffffff166bffffffffffffffffffffffff1681526020019250505060405180910390f35b60606040518060400160405280600781526020017f5472756555534400000000000000000000000000000000000000000000000000815250905090565b60006108bd6108b6610d20565b8484610d28565b6001905092915050565b60015481565b60006108da848484610f1f565b61099b846108e6610d20565b6109968560405180606001604052806028815260200161179860289139600360008b73ffffffffffffffffffffffffffffffffffffffff1673ffffffffffffffffffffffffffffffffffffffff168152602001908152602001600020600061094c610d20565b73ffffffffffffffffffffffffffffffffffffffff1673ffffffffffffffffffffffffffffffffffffffff168152602001908152602001600020546111e49092919063ffffffff16565b610d28565b600190509392505050565b60006002905090565b60006012905090565b6000610a616109c5610d20565b84610a5c85600360006109d6610d20565b73ffffffffffffffffffffffffffffffffffffffff1673ffffffffffffffffffffffffffffffffffffffff16815260200190815260200160002060008973ffffffffffffffffffffffffffffffffffffffff1673ffffffffffffffffffffffffffffffffffffffff168152602001908152602001600020546112a490919063ffffffff16565b610d28565b6001905092915050565b610a75828261132c565b5050565b610a8333826114f5565b50565b60076020528060005260406000206000915054906101000a900473ffffffffffffffffffffffffffffffffffffffff1681565b60096020528060005260406000206000915054906101000a900463ffffffff1681565b60026020528060005260406000206000915090505481565b6000600b60009054906101000a900473ffffffffffffffffffffffffffffffffffffffff16905090565b600a6020528060005260406000206000915090505481565b60606040518060400160405280600481526020017f5455534400000000000000000000000000000000000000000000000000000000815250905090565b6000610c36610b80610d20565b84610c318560405180606001604052806025815260200161182a6025913960036000610baa610d20565b73ffffffffffffffffffffffffffffffffffffffff1673ffffffffffffffffffffffffffffffffffffffff16815260200190815260200160002060008a73ffffffffffffffffffffffffffffffffffffffff1673ffffffffffffffffffffffffffffffffffffffff168152602001908152602001600020546111e49092919063ffffffff16565b610d28565b6001905092915050565b6000610c54610c4d610d20565b8484610f1f565b6001905092915050565b80600b60006101000a81548173ffffffffffffffffffffffffffffffffffffffff021916908373ffffffffffffffffffffffffffffffffffffffff16021790555050565b6003602052816000526040600020602052806000526040600020600091509150505481565b6008602052816000526040600020602052806000526040600020600091509150508060000160009054906101000a900463ffffffff16908060000160049054906101000a90046bffffffffffffffffffffffff16905082565b600033905090565b600073ffffffffffffffffffffffffffffffffffffffff168373ffffffffffffffffffffffffffffffffffffffff161415610dae576040517f08c379a00000000000000000000000000000000000000000000000000000000081526004018080602001828103825260248152602001806118066024913960400191505060405180910390fd5b600073ffffffffffffffffffffffffffffffffffffffff168273ffffffffffffffffffffffffffffffffffffffff161415610e34576040517f08c379a00000000000000000000000000000000000000000000000000000000081526004018080602001828103825260228152602001806117506022913960400191505060405180910390fd5b80600360008573ffffffffffffffffffffffffffffffffffffffff1673ffffffffffffffffffffffffffffffffffffffff16815260200190815260200160002060008473ffffffffffffffffffffffffffffffffffffffff1673ffffffffffffffffffffffffffffffffffffffff168152602001908152602001600020819055508173ffffffffffffffffffffffffffffffffffffffff168373ffffffffffffffffffffffffffffffffffffffff167f8c5be1e5ebec7d5bd14f71427d1e84f3dd0314c0f7b2291e5b200ac8c7c3b925836040518082815260200191505060405180910390a3505050565b600073ffffffffffffffffffffffffffffffffffffffff168373ffffffffffffffffffffffffffffffffffffffff161415610fa5576040517f08c379a00000000000000000000000000000000000000000000000000000000081526004018080602001828103825260258152602001806117e16025913960400191505060405180910390fd5b600073ffffffffffffffffffffffffffffffffffffffff168273ffffffffffffffffffffffffffffffffffffffff16141561102b576040517f08c379a000000000000000000000000000000000000000000000000000000000815260040180806020018281038252602381526020018061170b6023913960400191505060405180910390fd5b6110368383836116bb565b6110a28160405180606001604052806026815260200161177260269139600260008773ffffffffffffffffffffffffffffffffffffffff1673ffffffffffffffffffffffffffffffffffffffff168152602001908152602001600020546111e49092919063ffffffff16565b600260008573ffffffffffffffffffffffffffffffffffffffff1673ffffffffffffffffffffffffffffffffffffffff1681526020019081526020016000208190555061113781600260008573ffffffffffffffffffffffffffffffffffffffff1673ffffffffffffffffffffffffffffffffffffffff168152602001908152602001600020546112a490919063ffffffff16565b600260008473ffffffffffffffffffffffffffffffffffffffff1673ffffffffffffffffffffffffffffffffffffffff168152602001908152602001600020819055508173ffffffffffffffffffffffffffffffffffffffff168373ffffffffffffffffffffffffffffffffffffffff167fddf252ad1be2c89b69c2b068fc378daa952ba7f163c4a11628f55a4df523b3ef836040518082815260200191505060405180910390a3505050565b6000838311158290611291576040517f08c379a00000000000000000000000000000000000000000000000000000000081526004018080602001828103825283818151815260200191508051906020019080838360005b8381101561125657808201518184015260208101905061123b565b50505050905090810190601f1680156112835780820380516001836020036101000a031916815260200191505b509250505060405180910390fd5b5060008385039050809150509392505050565b600080828401905083811015611322576040517f08c379a000000000000000000000000000000000000000000000000000000000815260040180806020018281038252601b8152602001807f536166654d6174683a206164646974696f6e206f766572666c6f77000000000081525060200191505060405180910390fd5b8091505092915050565b600073ffffffffffffffffffffffffffffffffffffffff168273ffffffffffffffffffffffffffffffffffffffff1614156113cf576040517f08c379a000000000000000000000000000000000000000000000000000000000815260040180806020018281038252601f8152602001807f45524332303a206d696e7420746f20746865207a65726f20616464726573730081525060200191505060405180910390fd5b6113db600083836116bb565b6113f0816001546112a490919063ffffffff16565b60018190555061144881600260008573ffffffffffffffffffffffffffffffffffffffff1673ffffffffffffffffffffffffffffffffffffffff168152602001908152602001600020546112a490919063ffffffff16565b600260008473ffffffffffffffffffffffffffffffffffffffff1673ffffffffffffffffffffffffffffffffffffffff168152602001908152602001600020819055508173ffffffffffffffffffffffffffffffffffffffff16600073ffffffffffffffffffffffffffffffffffffffff167fddf252ad1be2c89b69c2b068fc378daa952ba7f163c4a11628f55a4df523b3ef836040518082815260200191505060405180910390a35050565b600073ffffffffffffffffffffffffffffffffffffffff168273ffffffffffffffffffffffffffffffffffffffff16141561157b576040517f08c379a00000000000000000000000000000000000000000000000000000000081526004018080602001828103825260218152602001806117c06021913960400191505060405180910390fd5b611587826000836116bb565b6115f38160405180606001604052806022815260200161172e60229139600260008673ffffffffffffffffffffffffffffffffffffffff1673ffffffffffffffffffffffffffffffffffffffff168152602001908152602001600020546111e49092919063ffffffff16565b600260008473ffffffffffffffffffffffffffffffffffffffff1673ffffffffffffffffffffffffffffffffffffffff1681526020019081526020016000208190555061164b816001546116c090919063ffffffff16565b600181905550600073ffffffffffffffffffffffffffffffffffffffff168273ffffffffffffffffffffffffffffffffffffffff167fddf252ad1be2c89b69c2b068fc378daa952ba7f163c4a11628f55a4df523b3ef836040518082815260200191505060405180910390a35050565b505050565b600061170283836040518060400160405280601e81526020017f536166654d6174683a207375627472616374696f6e206f766572666c6f7700008152506111e4565b90509291505056fe45524332303a207472616e7366657220746f20746865207a65726f206164647265737345524332303a206275726e20616d6f756e7420657863656564732062616c616e636545524332303a20617070726f766520746f20746865207a65726f206164647265737345524332303a207472616e7366657220616d6f756e7420657863656564732062616c616e636545524332303a207472616e7366657220616d6f756e74206578636565647320616c6c6f77616e636545524332303a206275726e2066726f6d20746865207a65726f206164647265737345524332303a207472616e736665722066726f6d20746865207a65726f206164647265737345524332303a20617070726f76652066726f6d20746865207a65726f206164647265737345524332303a2064656372656173656420616c6c6f77616e63652062656c6f77207a65726fa26469706673582212203805302ac60a3202ccd49c9e5287ea82a0cc1e3e976404295b188f4e43327bc964736f6c634300060a00336080604052670de0b6b3a764000060005534801561001c57600080fd5b506101bf8061002c6000396000f3fe608060405234801561001057600080fd5b506004361061004c5760003560e01c80633142dc3614610051578063872697291461007f578063bb7b8b801461009d578063cf701ff7146100bb575b600080fd5b61007d6004803603602081101561006757600080fd5b8101908080359060200190929190505050610140565b005b61008761014a565b6040518082815260200191505060405180910390f35b6100a5610150565b6040518082815260200191505060405180910390f35b61012a600480360360a08110156100d157600080fd5b8101908080608001906004806020026040519081016040528092919082600460200280828437600081840152601f19601f8201169050808301925050505050509192919290803515159060200190929190505050610159565b6040518082815260200191505060405180910390f35b8060008190555050565b60005481565b60008054905090565b60008054670de0b6b3a76400008460036004811061017357fe5b6020020151028161018057fe5b0490509291505056fea264697066735822122070f214a467fbf625fca9d8cb8bd54b08ba2545b8f7b958022f859e2a4704897164736f6c634300060a0033608060405234801561001057600080fd5b506118bd806100206000396000f3fe608060405234801561001057600080fd5b50600436106101375760003560e01c80636fcfff45116100b857806395d89b411161007c57806395d89b41146105f3578063a457c2d714610676578063a9059cbb146106dc578063a91ee0dc14610742578063dd62ed3e14610786578063f1127ed8146107fe57610137565b80636fcfff451461047757806370a08231146104db57806377c7b8fc146105335780637b103999146105515780637ecebe001461059b57610137565b8063313ce567116100ff578063313ce567146102ed578063395093511461031157806340c10f191461037757806342966c68146103c5578063587cde1e146103f357610137565b806306fdde031461013c578063095ea7b3146101bf57806318160ddd1461022557806323b872dd146102435780632e440403146102c9575b600080fd5b610144610895565b6040518080602001828103825283818151815260200191508051906020019080838360005b83811015610184578082015181840152602081019050610169565b50505050905090810190601f1680156101b15780820380516001836020036101000a031916815260200191505b509250505060405180910390f35b61020b600480360360408110156101d557600080fd5b81019080803573ffffffffffffffffffffffffffffffffffffffff169060200190929190803590602001909291905050506108d2565b604051808215151515815260200191505060405180910390f35b61022d6108f0565b6040518082815260200191505060405180910390f35b6102af6004803603606081101561025957600080fd5b81019080803573ffffffffffffffffffffffffffffffffffffffff169060200190929190803573ffffffffffffffffffffffffffffffffffffffff169060200190929190803590602001909291905050506108f6565b604051808215151515815260200191505060405180910390f35b6102d16109cf565b604051808260ff1660ff16815260200191505060405180910390f35b6102f56109d8565b604051808260ff1660ff16815260200191505060405180910390f35b61035d6004803603604081101561032757600080fd5b81019080803573ffffffffffffffffffffffffffffffffffffffff169060200190929190803590602001909291905050506109e1565b604051808215151515815260200191505060405180910390f35b6103c36004803603604081101561038d57600080fd5b81019080803573ffffffffffffffffffffffffffffffffffffffff16906020019092919080359060200190929190505050610a94565b005b6103f1600480360360208110156103db57600080fd5b8101908080359060200190929190505050610aa2565b005b6104356004803603602081101561040957600080fd5b81019080803573ffffffffffffffffffffffffffffffffffffffff169060200190929190505050610aaf565b604051808273ffffffffffffffffffffffffffffffffffffffff1673ffffffffffffffffffffffffffffffffffffffff16815260200191505060405180910390f35b6104b96004803603602081101561048d57600080fd5b81019080803573ffffffffffffffffffffffffffffffffffffffff169060200190929190505050610ae2565b604051808263ffffffff1663ffffffff16815260200191505060405180910390f35b61051d600480360360208110156104f157600080fd5b81019080803573ffffffffffffffffffffffffffffffffffffffff169060200190929190505050610b05565b6040518082815260200191505060405180910390f35b61053b610b1d565b6040518082815260200191505060405180910390f35b610559610b2d565b604051808273ffffffffffffffffffffffffffffffffffffffff1673ffffffffffffffffffffffffffffffffffffffff16815260200191505060405180910390f35b6105dd600480360360208110156105b157600080fd5b81019080803573ffffffffffffffffffffffffffffffffffffffff169060200190929190505050610b57565b6040518082815260200191505060405180910390f35b6105fb610b6f565b6040518080602001828103825283818151815260200191508051906020019080838360005b8381101561063b578082015181840152602081019050610620565b50505050905090810190601f1680156106685780820380516001836020036101000a031916815260200191505b509250505060405180910390f35b6106c26004803603604081101561068c57600080fd5b81019080803573ffffffffffffffffffffffffffffffffffffffff16906020019092919080359060200190929190505050610bac565b604051808215151515815260200191505060405180910390f35b610728600480360360408110156106f257600080fd5b81019080803573ffffffffffffffffffffffffffffffffffffffff16906020019092919080359060200190929190505050610c79565b604051808215151515815260200191505060405180910390f35b6107846004803603602081101561075857600080fd5b81019080803573ffffffffffffffffffffffffffffffffffffffff169060200190929190505050610c97565b005b6107e86004803603604081101561079c57600080fd5b81019080803573ffffffffffffffffffffffffffffffffffffffff169060200190929190803573ffffffffffffffffffffffffffffffffffffffff169060200190929190505050610cdb565b6040518082815260200191505060405180910390f35b6108506004803603604081101561081457600080fd5b81019080803573ffffffffffffffffffffffffffffffffffffffff169060200190929190803563ffffffff169060200190929190505050610d00565b604051808363ffffffff1663ffffffff168152602001826bffffffffffffffffffffffff166bffffffffffffffffffffffff1681526020019250505060405180910390f35b60606040518060400160405280600781526020017f5472756555534400000000000000000000000000000000000000000000000000815250905090565b60006108e66108df610d59565b8484610d61565b6001905092915050565b60015481565b6000610903848484610f58565b6109c48461090f610d59565b6109bf856040518060600160405280602881526020016117d160289139600360008b73ffffffffffffffffffffffffffffffffffffffff1673ffffffffffffffffffffffffffffffffffffffff1681526020019081526020016000206000610975610d59565b73ffffffffffffffffffffffffffffffffffffffff1673ffffffffffffffffffffffffffffffffffffffff1681526020019081526020016000205461121d9092919063ffffffff16565b610d61565b600190509392505050565b60006002905090565b60006012905090565b6000610a8a6109ee610d59565b84610a8585600360006109ff610d59565b73ffffffffffffffffffffffffffffffffffffffff1673ffffffffffffffffffffffffffffffffffffffff16815260200190815260200160002060008973ffffffffffffffffffffffffffffffffffffffff1673ffffffffffffffffffffffffffffffffffffffff168152602001908152602001600020546112dd90919063ffffffff16565b610d61565b6001905092915050565b610a9e8282611365565b5050565b610aac338261152e565b50565b60076020528060005260406000206000915054906101000a900473ffffffffffffffffffffffffffffffffffffffff1681565b60096020528060005260406000206000915054906101000a900463ffffffff1681565b60026020528060005260406000206000915090505481565b6000670de0b6b3a7640000905090565b6000600b60009054906101000a900473ffffffffffffffffffffffffffffffffffffffff16905090565b600a6020528060005260406000206000915090505481565b60606040518060400160405280600481526020017f5455534400000000000000000000000000000000000000000000000000000000815250905090565b6000610c6f610bb9610d59565b84610c6a856040518060600160405280602581526020016118636025913960036000610be3610d59565b73ffffffffffffffffffffffffffffffffffffffff1673ffffffffffffffffffffffffffffffffffffffff16815260200190815260200160002060008a73ffffffffffffffffffffffffffffffffffffffff1673ffffffffffffffffffffffffffffffffffffffff1681526020019081526020016000205461121d9092919063ffffffff16565b610d61565b6001905092915050565b6000610c8d610c86610d59565b8484610f58565b6001905092915050565b80600b60006101000a81548173ffffffffffffffffffffffffffffffffffffffff021916908373ffffffffffffffffffffffffffffffffffffffff16021790555050565b6003602052816000526040600020602052806000526040600020600091509150505481565b6008602052816000526040600020602052806000526040600020600091509150508060000160009054906101000a900463ffffffff16908060000160049054906101000a90046bffffffffffffffffffffffff16905082565b600033905090565b600073ffffffffffffffffffffffffffffffffffffffff168373ffffffffffffffffffffffffffffffffffffffff161415610de7576040517f08c379a000000000000000000000000000000000000000000000000000000000815260040180806020018281038252602481526020018061183f6024913960400191505060405180910390fd5b600073ffffffffffffffffffffffffffffffffffffffff168273ffffffffffffffffffffffffffffffffffffffff161415610e6d576040517f08c379a00000000000000000000000000000000000000000000000000000000081526004018080602001828103825260228152602001806117896022913960400191505060405180910390fd5b80600360008573ffffffffffffffffffffffffffffffffffffffff1673ffffffffffffffffffffffffffffffffffffffff16815260200190815260200160002060008473ffffffffffffffffffffffffffffffffffffffff1673ffffffffffffffffffffffffffffffffffffffff168152602001908152602001600020819055508173ffffffffffffffffffffffffffffffffffffffff168373ffffffffffffffffffffffffffffffffffffffff167f8c5be1e5ebec7d5bd14f71427d1e84f3dd0314c0f7b2291e5b200ac8c7c3b925836040518082815260200191505060405180910390a3505050565b600073ffffffffffffffffffffffffffffffffffffffff168373ffffffffffffffffffffffffffffffffffffffff161415610fde576040517f08c379a000000000000000000000000000000000000000000000000000000000815260040180806020018281038252602581526020018061181a6025913960400191505060405180910390fd5b600073ffffffffffffffffffffffffffffffffffffffff168273ffffffffffffffffffffffffffffffffffffffff161415611064576040517f08c379a00000000000000000000000000000000000000000000000000000000081526004018080602001828103825260238152602001806117446023913960400191505060405180910390fd5b61106f8383836116f4565b6110db816040518060600160405280602681526020016117ab60269139600260008773ffffffffffffffffffffffffffffffffffffffff1673ffffffffffffffffffffffffffffffffffffffff1681526020019081526020016000205461121d9092919063ffffffff16565b600260008573ffffffffffffffffffffffffffffffffffffffff1673ffffffffffffffffffffffffffffffffffffffff1681526020019081526020016000208190555061117081600260008573ffffffffffffffffffffffffffffffffffffffff1673ffffffffffffffffffffffffffffffffffffffff168152602001908152602001600020546112dd90919063ffffffff16565b600260008473ffffffffffffffffffffffffffffffffffffffff1673ffffffffffffffffffffffffffffffffffffffff168152602001908152602001600020819055508173ffffffffffffffffffffffffffffffffffffffff168373ffffffffffffffffffffffffffffffffffffffff167fddf252ad1be2c89b69c2b068fc378daa952ba7f163c4a11628f55a4df523b3ef836040518082815260200191505060405180910390a3505050565b60008383111582906112ca576040517f08c379a00000000000000000000000000000000000000000000000000000000081526004018080602001828103825283818151815260200191508051906020019080838360005b8381101561128f578082015181840152602081019050611274565b50505050905090810190601f1680156112bc5780820380516001836020036101000a031916815260200191505b509250505060405180910390fd5b5060008385039050809150509392505050565b60008082840190508381101561135b576040517f08c379a000000000000000000000000000000000000000000000000000000000815260040180806020018281038252601b8152602001807f536166654d6174683a206164646974696f6e206f766572666c6f77000000000081525060200191505060405180910390fd5b8091505092915050565b600073ffffffffffffffffffffffffffffffffffffffff168273ffffffffffffffffffffffffffffffffffffffff161415611408576040517f08c379a000000000000000000000000000000000000000000000000000000000815260040180806020018281038252601f8152602001807f45524332303a206d696e7420746f20746865207a65726f20616464726573730081525060200191505060405180910390fd5b611414600083836116f4565b611429816001546112dd90919063ffffffff16565b60018190555061148181600260008573ffffffffffffffffffffffffffffffffffffffff1673ffffffffffffffffffffffffffffffffffffffff168152602001908152602001600020546112dd90919063ffffffff16565b600260008473ffffffffffffffffffffffffffffffffffffffff1673ffffffffffffffffffffffffffffffffffffffff168152602001908152602001600020819055508173ffffffffffffffffffffffffffffffffffffffff16600073ffffffffffffffffffffffffffffffffffffffff167fddf252ad1be2c89b69c2b068fc378daa952ba7f163c4a11628f55a4df523b3ef836040518082815260200191505060405180910390a35050565b600073ffffffffffffffffffffffffffffffffffffffff168273ffffffffffffffffffffffffffffffffffffffff1614156115b4576040517f08c379a00000000000000000000000000000000000000000000000000000000081526004018080602001828103825260218152602001806117f96021913960400191505060405180910390fd5b6115c0826000836116f4565b61162c8160405180606001604052806022815260200161176760229139600260008673ffffffffffffffffffffffffffffffffffffffff1673ffffffffffffffffffffffffffffffffffffffff1681526020019081526020016000205461121d9092919063ffffffff16565b600260008473ffffffffffffffffffffffffffffffffffffffff1673ffffffffffffffffffffffffffffffffffffffff16815260200190815260200160002081905550611684816001546116f990919063ffffffff16565b600181905550600073ffffffffffffffffffffffffffffffffffffffff168273ffffffffffffffffffffffffffffffffffffffff167fddf252ad1be2c89b69c2b068fc378daa952ba7f163c4a11628f55a4df523b3ef836040518082815260200191505060405180910390a35050565b505050565b600061173b83836040518060400160405280601e81526020017f536166654d6174683a207375627472616374696f6e206f766572666c6f77000081525061121d565b90509291505056fe45524332303a207472616e7366657220746f20746865207a65726f206164647265737345524332303a206275726e20616d6f756e7420657863656564732062616c616e636545524332303a20617070726f766520746f20746865207a65726f206164647265737345524332303a207472616e7366657220616d6f756e7420657863656564732062616c616e636545524332303a207472616e7366657220616d6f756e74206578636565647320616c6c6f77616e636545524332303a206275726e2066726f6d20746865207a65726f206164647265737345524332303a207472616e736665722066726f6d20746865207a65726f206164647265737345524332303a20617070726f76652066726f6d20746865207a65726f206164647265737345524332303a2064656372656173656420616c6c6f77616e63652062656c6f77207a65726fa264697066735822122050bb883c65fdee83d212ec9b76c751d0673b38c59bfb50ccf0153dd78db4b29364736f6c634300060a0033436f6e747261637420696e7374616e63652068617320616c7265616479206265656e20696e697469616c697a6564a264697066735822122034c6cd6a0971cd7e0b8725f51eef912fa1040f5b11b3394f85906cff1831db8264736f6c634300060a0033",
  "linkReferences": {},
  "deployedLinkReferences": {}
}