{
  "_format": "hh-sol-artifact-1",
  "contractName": "MockCurve",
  "sourceName": "contracts/truefi/mock/MockCurvePool.sol",
  "abi": [
    {
      "inputs": [
        {
          "internalType": "uint256[4]",
          "name": "amounts",
          "type": "uint256[4]"
        },
        {
          "internalType": "bool",
          "name": "",
          "type": "bool"
        }
      ],
      "name": "calc_token_amount",
      "outputs": [
        {
          "internalType": "uint256",
          "name": "",
          "type": "uint256"
        }
      ],
      "stateMutability": "view",
      "type": "function"
    },
    {
      "inputs": [],
      "name": "get_virtual_price",
      "outputs": [
        {
          "internalType": "uint256",
          "name": "",
          "type": "uint256"
        }
      ],
      "stateMutability": "view",
      "type": "function"
    },
    {
      "inputs": [
        {
          "internalType": "uint256",
          "name": "price",
          "type": "uint256"
        }
      ],
      "name": "set_withdraw_price",
      "outputs": [],
      "stateMutability": "nonpayable",
      "type": "function"
    },
    {
      "inputs": [],
      "name": "sharePrice",
      "outputs": [
        {
          "internalType": "uint256",
          "name": "",
          "type": "uint256"
        }
      ],
      "stateMutability": "view",
      "type": "function"
    }
  ],
  "bytecode": "0x6080604052670de0b6b3a764000060005534801561001c57600080fd5b506101bf8061002c6000396000f3fe608060405234801561001057600080fd5b506004361061004c5760003560e01c80633142dc3614610051578063872697291461007f578063bb7b8b801461009d578063cf701ff7146100bb575b600080fd5b61007d6004803603602081101561006757600080fd5b8101908080359060200190929190505050610140565b005b61008761014a565b6040518082815260200191505060405180910390f35b6100a5610150565b6040518082815260200191505060405180910390f35b61012a600480360360a08110156100d157600080fd5b8101908080608001906004806020026040519081016040528092919082600460200280828437600081840152601f19601f8201169050808301925050505050509192919290803515159060200190929190505050610159565b6040518082815260200191505060405180910390f35b8060008190555050565b60005481565b60008054905090565b60008054670de0b6b3a76400008460036004811061017357fe5b6020020151028161018057fe5b0490509291505056fea264697066735822122070f214a467fbf625fca9d8cb8bd54b08ba2545b8f7b958022f859e2a4704897164736f6c634300060a0033",
  "linkReferences": {},
  "deployedLinkReferences": {}
}