{
  "_format": "hh-sol-artifact-1",
  "contractName": "GovernorAlpha",
  "sourceName": "contracts/trusttoken/governance/GovernorAlpha.sol",
  "abi": [
    {
      "inputs": [
        {
          "internalType": "address",
          "name": "timelock_",
          "type": "address"
        },
        {
          "internalType": "address",
          "name": "trustToken_",
          "type": "address"
        },
        {
          "internalType": "address",
          "name": "guardian_",
          "type": "address"
        }
      ],
      "stateMutability": "nonpayable",
      "type": "constructor"
    },
    {
      "anonymous": false,
      "inputs": [
        {
          "indexed": false,
          "internalType": "uint256",
          "name": "id",
          "type": "uint256"
        }
      ],
      "name": "ProposalCanceled",
      "type": "event"
    },
    {
      "anonymous": false,
      "inputs": [
        {
          "indexed": false,
          "internalType": "uint256",
          "name": "id",
          "type": "uint256"
        },
        {
          "indexed": false,
          "internalType": "address",
          "name": "proposer",
          "type": "address"
        },
        {
          "indexed": false,
          "internalType": "address[]",
          "name": "targets",
          "type": "address[]"
        },
        {
          "indexed": false,
          "internalType": "uint256[]",
          "name": "values",
          "type": "uint256[]"
        },
        {
          "indexed": false,
          "internalType": "string[]",
          "name": "signatures",
          "type": "string[]"
        },
        {
          "indexed": false,
          "internalType": "bytes[]",
          "name": "calldatas",
          "type": "bytes[]"
        },
        {
          "indexed": false,
          "internalType": "uint256",
          "name": "startBlock",
          "type": "uint256"
        },
        {
          "indexed": false,
          "internalType": "uint256",
          "name": "endBlock",
          "type": "uint256"
        },
        {
          "indexed": false,
          "internalType": "string",
          "name": "description",
          "type": "string"
        }
      ],
      "name": "ProposalCreated",
      "type": "event"
    },
    {
      "anonymous": false,
      "inputs": [
        {
          "indexed": false,
          "internalType": "uint256",
          "name": "id",
          "type": "uint256"
        }
      ],
      "name": "ProposalExecuted",
      "type": "event"
    },
    {
      "anonymous": false,
      "inputs": [
        {
          "indexed": false,
          "internalType": "uint256",
          "name": "id",
          "type": "uint256"
        },
        {
          "indexed": false,
          "internalType": "uint256",
          "name": "eta",
          "type": "uint256"
        }
      ],
      "name": "ProposalQueued",
      "type": "event"
    },
    {
      "anonymous": false,
      "inputs": [
        {
          "indexed": false,
          "internalType": "address",
          "name": "voter",
          "type": "address"
        },
        {
          "indexed": false,
          "internalType": "uint256",
          "name": "proposalId",
          "type": "uint256"
        },
        {
          "indexed": false,
          "internalType": "bool",
          "name": "support",
          "type": "bool"
        },
        {
          "indexed": false,
          "internalType": "uint256",
          "name": "votes",
          "type": "uint256"
        }
      ],
      "name": "VoteCast",
      "type": "event"
    },
    {
      "inputs": [],
      "name": "BALLOT_TYPEHASH",
      "outputs": [
        {
          "internalType": "bytes32",
          "name": "",
          "type": "bytes32"
        }
      ],
      "stateMutability": "view",
      "type": "function"
    },
    {
      "inputs": [],
      "name": "DOMAIN_TYPEHASH",
      "outputs": [
        {
          "internalType": "bytes32",
          "name": "",
          "type": "bytes32"
        }
      ],
      "stateMutability": "view",
      "type": "function"
    },
    {
      "inputs": [],
      "name": "__abdicate",
      "outputs": [],
      "stateMutability": "nonpayable",
      "type": "function"
    },
    {
      "inputs": [],
      "name": "__acceptAdmin",
      "outputs": [],
      "stateMutability": "nonpayable",
      "type": "function"
    },
    {
      "inputs": [
        {
          "internalType": "address",
          "name": "newPendingAdmin",
          "type": "address"
        },
        {
          "internalType": "uint256",
          "name": "eta",
          "type": "uint256"
        }
      ],
      "name": "__executeSetTimelockPendingAdmin",
      "outputs": [],
      "stateMutability": "nonpayable",
      "type": "function"
    },
    {
      "inputs": [
        {
          "internalType": "address",
          "name": "newPendingAdmin",
          "type": "address"
        },
        {
          "internalType": "uint256",
          "name": "eta",
          "type": "uint256"
        }
      ],
      "name": "__queueSetTimelockPendingAdmin",
      "outputs": [],
      "stateMutability": "nonpayable",
      "type": "function"
    },
    {
      "inputs": [
        {
          "internalType": "uint256",
          "name": "proposalId",
          "type": "uint256"
        }
      ],
      "name": "cancel",
      "outputs": [],
      "stateMutability": "nonpayable",
      "type": "function"
    },
    {
      "inputs": [
        {
          "internalType": "uint256",
          "name": "proposalId",
          "type": "uint256"
        },
        {
          "internalType": "bool",
          "name": "support",
          "type": "bool"
        }
      ],
      "name": "castVote",
      "outputs": [],
      "stateMutability": "nonpayable",
      "type": "function"
    },
    {
      "inputs": [
        {
          "internalType": "uint256",
          "name": "proposalId",
          "type": "uint256"
        },
        {
          "internalType": "bool",
          "name": "support",
          "type": "bool"
        },
        {
          "internalType": "uint8",
          "name": "v",
          "type": "uint8"
        },
        {
          "internalType": "bytes32",
          "name": "r",
          "type": "bytes32"
        },
        {
          "internalType": "bytes32",
          "name": "s",
          "type": "bytes32"
        }
      ],
      "name": "castVoteBySig",
      "outputs": [],
      "stateMutability": "nonpayable",
      "type": "function"
    },
    {
      "inputs": [
        {
          "internalType": "uint256",
          "name": "proposalId",
          "type": "uint256"
        }
      ],
      "name": "execute",
      "outputs": [],
      "stateMutability": "payable",
      "type": "function"
    },
    {
      "inputs": [
        {
          "internalType": "uint256",
          "name": "proposalId",
          "type": "uint256"
        }
      ],
      "name": "getActions",
      "outputs": [
        {
          "internalType": "address[]",
          "name": "targets",
          "type": "address[]"
        },
        {
          "internalType": "uint256[]",
          "name": "values",
          "type": "uint256[]"
        },
        {
          "internalType": "string[]",
          "name": "signatures",
          "type": "string[]"
        },
        {
          "internalType": "bytes[]",
          "name": "calldatas",
          "type": "bytes[]"
        }
      ],
      "stateMutability": "view",
      "type": "function"
    },
    {
      "inputs": [
        {
          "internalType": "uint256",
          "name": "proposalId",
          "type": "uint256"
        },
        {
          "internalType": "address",
          "name": "voter",
          "type": "address"
        }
      ],
      "name": "getReceipt",
      "outputs": [
        {
          "components": [
            {
              "internalType": "bool",
              "name": "hasVoted",
              "type": "bool"
            },
            {
              "internalType": "bool",
              "name": "support",
              "type": "bool"
            },
            {
              "internalType": "uint96",
              "name": "votes",
              "type": "uint96"
            }
          ],
          "internalType": "struct GovernorAlpha.Receipt",
          "name": "",
          "type": "tuple"
        }
      ],
      "stateMutability": "view",
      "type": "function"
    },
    {
      "inputs": [],
      "name": "guardian",
      "outputs": [
        {
          "internalType": "address",
          "name": "",
          "type": "address"
        }
      ],
      "stateMutability": "view",
      "type": "function"
    },
    {
      "inputs": [
        {
          "internalType": "address",
          "name": "",
          "type": "address"
        }
      ],
      "name": "latestProposalIds",
      "outputs": [
        {
          "internalType": "uint256",
          "name": "",
          "type": "uint256"
        }
      ],
      "stateMutability": "view",
      "type": "function"
    },
    {
      "inputs": [],
      "name": "name",
      "outputs": [
        {
          "internalType": "string",
          "name": "",
          "type": "string"
        }
      ],
      "stateMutability": "view",
      "type": "function"
    },
    {
      "inputs": [],
      "name": "proposalCount",
      "outputs": [
        {
          "internalType": "uint256",
          "name": "",
          "type": "uint256"
        }
      ],
      "stateMutability": "view",
      "type": "function"
    },
    {
      "inputs": [],
      "name": "proposalMaxOperations",
      "outputs": [
        {
          "internalType": "uint256",
          "name": "",
          "type": "uint256"
        }
      ],
      "stateMutability": "pure",
      "type": "function"
    },
    {
      "inputs": [],
      "name": "proposalThreshold",
      "outputs": [
        {
          "internalType": "uint256",
          "name": "",
          "type": "uint256"
        }
      ],
      "stateMutability": "pure",
      "type": "function"
    },
    {
      "inputs": [
        {
          "internalType": "uint256",
          "name": "",
          "type": "uint256"
        }
      ],
      "name": "proposals",
      "outputs": [
        {
          "internalType": "uint256",
          "name": "id",
          "type": "uint256"
        },
        {
          "internalType": "address",
          "name": "proposer",
          "type": "address"
        },
        {
          "internalType": "uint256",
          "name": "eta",
          "type": "uint256"
        },
        {
          "internalType": "uint256",
          "name": "startBlock",
          "type": "uint256"
        },
        {
          "internalType": "uint256",
          "name": "endBlock",
          "type": "uint256"
        },
        {
          "internalType": "uint256",
          "name": "forVotes",
          "type": "uint256"
        },
        {
          "internalType": "uint256",
          "name": "againstVotes",
          "type": "uint256"
        },
        {
          "internalType": "bool",
          "name": "canceled",
          "type": "bool"
        },
        {
          "internalType": "bool",
          "name": "executed",
          "type": "bool"
        }
      ],
      "stateMutability": "view",
      "type": "function"
    },
    {
      "inputs": [
        {
          "internalType": "address[]",
          "name": "targets",
          "type": "address[]"
        },
        {
          "internalType": "uint256[]",
          "name": "values",
          "type": "uint256[]"
        },
        {
          "internalType": "string[]",
          "name": "signatures",
          "type": "string[]"
        },
        {
          "internalType": "bytes[]",
          "name": "calldatas",
          "type": "bytes[]"
        },
        {
          "internalType": "string",
          "name": "description",
          "type": "string"
        }
      ],
      "name": "propose",
      "outputs": [
        {
          "internalType": "uint256",
          "name": "",
          "type": "uint256"
        }
      ],
      "stateMutability": "nonpayable",
      "type": "function"
    },
    {
      "inputs": [
        {
          "internalType": "uint256",
          "name": "proposalId",
          "type": "uint256"
        }
      ],
      "name": "queue",
      "outputs": [],
      "stateMutability": "nonpayable",
      "type": "function"
    },
    {
      "inputs": [],
      "name": "quorumVotes",
      "outputs": [
        {
          "internalType": "uint256",
          "name": "",
          "type": "uint256"
        }
      ],
      "stateMutability": "pure",
      "type": "function"
    },
    {
      "inputs": [
        {
          "internalType": "uint256",
          "name": "proposalId",
          "type": "uint256"
        }
      ],
      "name": "state",
      "outputs": [
        {
          "internalType": "enum GovernorAlpha.ProposalState",
          "name": "",
          "type": "uint8"
        }
      ],
      "stateMutability": "view",
      "type": "function"
    },
    {
      "inputs": [],
      "name": "timelock",
      "outputs": [
        {
          "internalType": "contract TimelockInterface",
          "name": "",
          "type": "address"
        }
      ],
      "stateMutability": "view",
      "type": "function"
    },
    {
      "inputs": [],
      "name": "trustToken",
      "outputs": [
        {
          "internalType": "contract TrustTokenInterface",
          "name": "",
          "type": "address"
        }
      ],
      "stateMutability": "view",
      "type": "function"
    },
    {
      "inputs": [],
      "name": "votingDelay",
      "outputs": [
        {
          "internalType": "uint256",
          "name": "",
          "type": "uint256"
        }
      ],
      "stateMutability": "pure",
      "type": "function"
    },
    {
      "inputs": [],
      "name": "votingPeriod",
      "outputs": [
        {
          "internalType": "uint256",
          "name": "",
          "type": "uint256"
        }
      ],
      "stateMutability": "pure",
      "type": "function"
    }
  ],
  "bytecode": "0x60806040523480156200001157600080fd5b506040516200535c3803806200535c833981810160405281019062000037919062000119565b826000806101000a81548173ffffffffffffffffffffffffffffffffffffffff021916908373ffffffffffffffffffffffffffffffffffffffff16021790555081600160006101000a81548173ffffffffffffffffffffffffffffffffffffffff021916908373ffffffffffffffffffffffffffffffffffffffff16021790555080600260006101000a81548173ffffffffffffffffffffffffffffffffffffffff021916908373ffffffffffffffffffffffffffffffffffffffff160217905550505050620001bd565b6000815190506200011381620001a3565b92915050565b6000806000606084860312156200012f57600080fd5b60006200013f8682870162000102565b9350506020620001528682870162000102565b9250506040620001658682870162000102565b9150509250925092565b60006200017c8262000183565b9050919050565b600073ffffffffffffffffffffffffffffffffffffffff82169050919050565b620001ae816200016f565b8114620001ba57600080fd5b50565b61518f80620001cd6000396000f3fe60806040526004361061019c5760003560e01c80634634c61f116100ec578063d33219b41161008a578063ddf0b00911610064578063ddf0b009146105b1578063deaaa7cc146105da578063e23a9a5214610605578063fe0d94c1146106425761019c565b8063d33219b41461051e578063da35c66414610549578063da95691a146105745761019c565b806391500671116100c65780639150067114610488578063b58131b0146104b1578063b9a61961146104dc578063d13deb2f146104f35761019c565b80634634c61f1461041d578063760fbc13146104465780637bdbe4d01461045d5761019c565b806321f43e42116101595780633932abb1116101335780633932abb1146103615780633e4f49e61461038c57806340e58ee5146103c9578063452a9320146103f25761019c565b806321f43e42146102cd57806324bc1a64146102f6578063328dd982146103215761019c565b8063013cf08b146101a157806302a251a3146101e657806306fdde031461021157806315373e3d1461023c57806317977c611461026557806320606b70146102a2575b600080fd5b3480156101ad57600080fd5b506101c860048036038101906101c39190613317565b61065e565b6040516101dd99989796959493929190614bd9565b60405180910390f35b3480156101f257600080fd5b506101fb6106e6565b6040516102089190614b0e565b60405180910390f35b34801561021d57600080fd5b506102266106f0565b6040516102339190614831565b60405180910390f35b34801561024857600080fd5b50610263600480360381019061025e91906133a5565b610729565b005b34801561027157600080fd5b5061028c60048036038101906102879190613130565b610738565b6040516102999190614b0e565b60405180910390f35b3480156102ae57600080fd5b506102b7610750565b6040516102c49190614704565b60405180910390f35b3480156102d957600080fd5b506102f460048036038101906102ef9190613159565b610767565b005b34801561030257600080fd5b5061030b6108f4565b6040516103189190614b0e565b60405180910390f35b34801561032d57600080fd5b5061034860048036038101906103439190613317565b610903565b60405161035894939291906146a3565b60405180910390f35b34801561036d57600080fd5b50610376610be0565b6040516103839190614b0e565b60405180910390f35b34801561039857600080fd5b506103b360048036038101906103ae9190613317565b610be9565b6040516103c09190614816565b60405180910390f35b3480156103d557600080fd5b506103f060048036038101906103eb9190613317565b610dcd565b005b3480156103fe57600080fd5b50610407611169565b60405161041491906144d0565b60405180910390f35b34801561042957600080fd5b50610444600480360381019061043f91906133e1565b61118f565b005b34801561045257600080fd5b5061045b61135e565b005b34801561046957600080fd5b50610472611432565b60405161047f9190614b0e565b60405180910390f35b34801561049457600080fd5b506104af60048036038101906104aa9190613159565b61143b565b005b3480156104bd57600080fd5b506104c66115c3565b6040516104d39190614b0e565b60405180910390f35b3480156104e857600080fd5b506104f16115d2565b005b3480156104ff57600080fd5b506105086116e5565b60405161051591906147fb565b60405180910390f35b34801561052a57600080fd5b5061053361170b565b60405161054091906147e0565b60405180910390f35b34801561055557600080fd5b5061055e611730565b60405161056b9190614b0e565b60405180910390f35b34801561058057600080fd5b5061059b60048036038101906105969190613195565b611736565b6040516105a89190614b0e565b60405180910390f35b3480156105bd57600080fd5b506105d860048036038101906105d39190613317565b611d03565b005b3480156105e657600080fd5b506105ef612052565b6040516105fc9190614704565b60405180910390f35b34801561061157600080fd5b5061062c60048036038101906106279190613369565b612069565b6040516106399190614af3565b60405180910390f35b61065c60048036038101906106579190613317565b61214b565b005b60046020528060005260406000206000915090508060000154908060010160009054906101000a900473ffffffffffffffffffffffffffffffffffffffff169080600201549080600701549080600801549080600901549080600a01549080600b0160009054906101000a900460ff169080600b0160019054906101000a900460ff16905089565b6000614380905090565b6040518060400160405280601981526020017f5472757374546f6b656e20476f7665726e6f7220416c7068610000000000000081525081565b610734338383612398565b5050565b60056020528060005260406000206000915090505481565b60405161075c906144a6565b604051809103902081565b600260009054906101000a900473ffffffffffffffffffffffffffffffffffffffff1673ffffffffffffffffffffffffffffffffffffffff163373ffffffffffffffffffffffffffffffffffffffff16146107f7576040517f08c379a00000000000000000000000000000000000000000000000000000000081526004016107ee906148b3565b60405180910390fd5b6000809054906101000a900473ffffffffffffffffffffffffffffffffffffffff1673ffffffffffffffffffffffffffffffffffffffff16630825f38f6000809054906101000a900473ffffffffffffffffffffffffffffffffffffffff1660008560405160200161086991906144d0565b604051602081830303815290604052856040518563ffffffff1660e01b81526004016108989493929190614514565b600060405180830381600087803b1580156108b257600080fd5b505af11580156108c6573d6000803e3d6000fd5b505050506040513d6000823e3d601f19601f820116820180604052508101906108ef91906132d6565b505050565b600066149b11bbb28000905090565b606080606080600060046000878152602001908152602001600020905080600301816004018260050183600601838054806020026020016040519081016040528092919081815260200182805480156109b157602002820191906000526020600020905b8160009054906101000a900473ffffffffffffffffffffffffffffffffffffffff1673ffffffffffffffffffffffffffffffffffffffff1681526020019060010190808311610967575b5050505050935082805480602002602001604051908101604052809291908181526020018280548015610a0357602002820191906000526020600020905b8154815260200190600101908083116109ef575b5050505050925081805480602002602001604051908101604052809291908181526020016000905b82821015610ae7578382906000526020600020018054600181600116156101000203166002900480601f016020809104026020016040519081016040528092919081815260200182805460018160011615610100020316600290048015610ad35780601f10610aa857610100808354040283529160200191610ad3565b820191906000526020600020905b815481529060010190602001808311610ab657829003601f168201915b505050505081526020019060010190610a2b565b50505050915080805480602002602001604051908101604052809291908181526020016000905b82821015610bca578382906000526020600020018054600181600116156101000203166002900480601f016020809104026020016040519081016040528092919081815260200182805460018160011615610100020316600290048015610bb65780601f10610b8b57610100808354040283529160200191610bb6565b820191906000526020600020905b815481529060010190602001808311610b9957829003601f168201915b505050505081526020019060010190610b0e565b5050505090509450945094509450509193509193565b60006001905090565b60008160035410158015610bfd5750600082115b610c3c576040517f08c379a0000000000000000000000000000000000000000000000000000000008152600401610c33906148d3565b60405180910390fd5b600060046000848152602001908152602001600020905080600b0160009054906101000a900460ff1615610c74576002915050610dc8565b80600701544311610c89576000915050610dc8565b80600801544311610c9e576001915050610dc8565b80600a01548160090154111580610cbf5750610cb86108f4565b8160090154105b15610cce576003915050610dc8565b600081600201541415610ce5576004915050610dc8565b80600b0160019054906101000a900460ff1615610d06576007915050610dc8565b610db281600201546000809054906101000a900473ffffffffffffffffffffffffffffffffffffffff1673ffffffffffffffffffffffffffffffffffffffff1663c1a287e26040518163ffffffff1660e01b815260040160206040518083038186803b158015610d7557600080fd5b505afa158015610d89573d6000803e3d6000fd5b505050506040513d601f19601f82011682018060405250810190610dad9190613340565b612667565b4210610dc2576006915050610dc8565b60059150505b919050565b6000610dd882610be9565b9050600780811115610de657fe5b816007811115610df257fe5b1415610e33576040517f08c379a0000000000000000000000000000000000000000000000000000000008152600401610e2a90614a73565b60405180910390fd5b6000600460008481526020019081526020016000209050600260009054906101000a900473ffffffffffffffffffffffffffffffffffffffff1673ffffffffffffffffffffffffffffffffffffffff163373ffffffffffffffffffffffffffffffffffffffff161480610f945750610ea96115c3565b600160009054906101000a900473ffffffffffffffffffffffffffffffffffffffff1673ffffffffffffffffffffffffffffffffffffffff1663782d6fe18360010160009054906101000a900473ffffffffffffffffffffffffffffffffffffffff16610f174360016126bc565b6040518363ffffffff1660e01b8152600401610f34929190614573565b60206040518083038186803b158015610f4c57600080fd5b505afa158015610f60573d6000803e3d6000fd5b505050506040513d601f19601f82011682018060405250810190610f849190613458565b6bffffffffffffffffffffffff16105b610fd3576040517f08c379a0000000000000000000000000000000000000000000000000000000008152600401610fca906149b3565b60405180910390fd5b600181600b0160006101000a81548160ff02191690831515021790555060008090505b816003018054905081101561112c576000809054906101000a900473ffffffffffffffffffffffffffffffffffffffff1673ffffffffffffffffffffffffffffffffffffffff1663591fcdfe83600301838154811061105157fe5b9060005260206000200160009054906101000a900473ffffffffffffffffffffffffffffffffffffffff1684600401848154811061108b57fe5b90600052602060002001548560050185815481106110a557fe5b906000526020600020018660060186815481106110be57fe5b9060005260206000200187600201546040518663ffffffff1660e01b81526004016110ed959493929190614642565b600060405180830381600087803b15801561110757600080fd5b505af115801561111b573d6000803e3d6000fd5b505050508080600101915050610ff6565b507f789cf55be980739dad1d0699b93b58e806b51c9d96619bfa8fe0a28abaa7b30c8360405161115c9190614b0e565b60405180910390a1505050565b600260009054906101000a900473ffffffffffffffffffffffffffffffffffffffff1681565b600060405161119d906144a6565b60405180910390206040518060400160405280601981526020017f5472757374546f6b656e20476f7665726e6f7220416c70686100000000000000815250805190602001206111ea61270c565b306040516020016111fe949392919061471f565b6040516020818303038152906040528051906020012090506000604051611224906144bb565b6040518091039020878760405160200161124093929190614764565b6040516020818303038152906040528051906020012090506000828260405160200161126d92919061446f565b6040516020818303038152906040528051906020012090506000600182888888604051600081526020016040526040516112aa949392919061479b565b6020604051602081039080840390855afa1580156112cc573d6000803e3d6000fd5b505050602060405103519050600073ffffffffffffffffffffffffffffffffffffffff168173ffffffffffffffffffffffffffffffffffffffff161415611348576040517f08c379a000000000000000000000000000000000000000000000000000000000815260040161133f90614a33565b60405180910390fd5b611353818a8a612398565b505050505050505050565b600260009054906101000a900473ffffffffffffffffffffffffffffffffffffffff1673ffffffffffffffffffffffffffffffffffffffff163373ffffffffffffffffffffffffffffffffffffffff16146113ee576040517f08c379a00000000000000000000000000000000000000000000000000000000081526004016113e590614ad3565b60405180910390fd5b6000600260006101000a81548173ffffffffffffffffffffffffffffffffffffffff021916908373ffffffffffffffffffffffffffffffffffffffff160217905550565b6000600a905090565b600260009054906101000a900473ffffffffffffffffffffffffffffffffffffffff1673ffffffffffffffffffffffffffffffffffffffff163373ffffffffffffffffffffffffffffffffffffffff16146114cb576040517f08c379a00000000000000000000000000000000000000000000000000000000081526004016114c290614933565b60405180910390fd5b6000809054906101000a900473ffffffffffffffffffffffffffffffffffffffff1673ffffffffffffffffffffffffffffffffffffffff16633a66f9016000809054906101000a900473ffffffffffffffffffffffffffffffffffffffff1660008560405160200161153d91906144d0565b604051602081830303815290604052856040518563ffffffff1660e01b815260040161156c9493929190614514565b602060405180830381600087803b15801561158657600080fd5b505af115801561159a573d6000803e3d6000fd5b505050506040513d601f19601f820116820180604052508101906115be91906132ad565b505050565b6000660526c46eeca000905090565b600260009054906101000a900473ffffffffffffffffffffffffffffffffffffffff1673ffffffffffffffffffffffffffffffffffffffff163373ffffffffffffffffffffffffffffffffffffffff1614611662576040517f08c379a000000000000000000000000000000000000000000000000000000000815260040161165990614853565b60405180910390fd5b6000809054906101000a900473ffffffffffffffffffffffffffffffffffffffff1673ffffffffffffffffffffffffffffffffffffffff16630e18b6816040518163ffffffff1660e01b8152600401600060405180830381600087803b1580156116cb57600080fd5b505af11580156116df573d6000803e3d6000fd5b50505050565b600160009054906101000a900473ffffffffffffffffffffffffffffffffffffffff1681565b6000809054906101000a900473ffffffffffffffffffffffffffffffffffffffff1681565b60035481565b60006117406115c3565b600160009054906101000a900473ffffffffffffffffffffffffffffffffffffffff1673ffffffffffffffffffffffffffffffffffffffff1663782d6fe13361178a4360016126bc565b6040518363ffffffff1660e01b81526004016117a79291906144eb565b60206040518083038186803b1580156117bf57600080fd5b505afa1580156117d3573d6000803e3d6000fd5b505050506040513d601f19601f820116820180604052508101906117f79190613458565b6bffffffffffffffffffffffff1611611845576040517f08c379a000000000000000000000000000000000000000000000000000000000815260040161183c90614a13565b60405180910390fd5b84518651148015611857575083518651145b8015611864575082518651145b6118a3576040517f08c379a000000000000000000000000000000000000000000000000000000000815260040161189a90614993565b60405180910390fd5b6000865114156118e8576040517f08c379a00000000000000000000000000000000000000000000000000000000081526004016118df906149f3565b60405180910390fd5b6118f0611432565b86511115611933576040517f08c379a000000000000000000000000000000000000000000000000000000000815260040161192a90614953565b60405180910390fd5b6000600560003373ffffffffffffffffffffffffffffffffffffffff1673ffffffffffffffffffffffffffffffffffffffff16815260200190815260200160002054905060008114611a4257600061198a82610be9565b90506001600781111561199957fe5b8160078111156119a557fe5b14156119e6576040517f08c379a00000000000000000000000000000000000000000000000000000000081526004016119dd90614a53565b60405180910390fd5b600060078111156119f357fe5b8160078111156119ff57fe5b1415611a40576040517f08c379a0000000000000000000000000000000000000000000000000000000008152600401611a3790614913565b60405180910390fd5b505b6000611a5543611a50610be0565b612667565b90506000611a6a82611a656106e6565b612667565b9050600360008154809291906001019190505550611a866128ed565b604051806101a0016040528060035481526020013373ffffffffffffffffffffffffffffffffffffffff168152602001600081526020018b81526020018a815260200189815260200188815260200184815260200183815260200160008152602001600081526020016000151581526020016000151581525090508060046000836000015181526020019081526020016000206000820151816000015560208201518160010160006101000a81548173ffffffffffffffffffffffffffffffffffffffff021916908373ffffffffffffffffffffffffffffffffffffffff160217905550604082015181600201556060820151816003019080519060200190611b9092919061296f565b506080820151816004019080519060200190611bad9291906129f9565b5060a0820151816005019080519060200190611bca929190612a46565b5060c0820151816006019080519060200190611be7929190612aa6565b5060e082015181600701556101008201518160080155610120820151816009015561014082015181600a015561016082015181600b0160006101000a81548160ff02191690831515021790555061018082015181600b0160016101000a81548160ff021916908315150217905550905050806000015160056000836020015173ffffffffffffffffffffffffffffffffffffffff1673ffffffffffffffffffffffffffffffffffffffff168152602001908152602001600020819055507f7d84a6263ae0d98d3329bd7b46bb4e8d6f98cd35a7adb45c274c8b7fd5ebd5e08160000151338c8c8c8c89898e604051611ce799989796959493929190614b29565b60405180910390a1806000015194505050505095945050505050565b60046007811115611d1057fe5b611d1982610be9565b6007811115611d2457fe5b14611d64576040517f08c379a0000000000000000000000000000000000000000000000000000000008152600401611d5b90614873565b60405180910390fd5b60006004600083815260200190815260200160002090506000611e25426000809054906101000a900473ffffffffffffffffffffffffffffffffffffffff1673ffffffffffffffffffffffffffffffffffffffff16636a42b8f86040518163ffffffff1660e01b815260040160206040518083038186803b158015611de857600080fd5b505afa158015611dfc573d6000803e3d6000fd5b505050506040513d601f19601f82011682018060405250810190611e209190613340565b612667565b905060008090505b826003018054905081101561200a57611ffd836003018281548110611e4e57fe5b9060005260206000200160009054906101000a900473ffffffffffffffffffffffffffffffffffffffff16846004018381548110611e8857fe5b9060005260206000200154856005018481548110611ea257fe5b906000526020600020018054600181600116156101000203166002900480601f016020809104026020016040519081016040528092919081815260200182805460018160011615610100020316600290048015611f405780601f10611f1557610100808354040283529160200191611f40565b820191906000526020600020905b815481529060010190602001808311611f2357829003601f168201915b5050505050866006018581548110611f5457fe5b906000526020600020018054600181600116156101000203166002900480601f016020809104026020016040519081016040528092919081815260200182805460018160011615610100020316600290048015611ff25780601f10611fc757610100808354040283529160200191611ff2565b820191906000526020600020905b815481529060010190602001808311611fd557829003601f168201915b505050505086612719565b8080600101915050611e2d565b508082600201819055507f9a2e42fd6722813d69113e7d0079d3d940171428df7373df9c7f7617cfda28928382604051612045929190614c66565b60405180910390a1505050565b60405161205e906144bb565b604051809103902081565b612071612b06565b60046000848152602001908152602001600020600c0160008373ffffffffffffffffffffffffffffffffffffffff1673ffffffffffffffffffffffffffffffffffffffff1681526020019081526020016000206040518060600160405290816000820160009054906101000a900460ff161515151581526020016000820160019054906101000a900460ff161515151581526020016000820160029054906101000a90046bffffffffffffffffffffffff166bffffffffffffffffffffffff166bffffffffffffffffffffffff1681525050905092915050565b6005600781111561215857fe5b61216182610be9565b600781111561216c57fe5b146121ac576040517f08c379a00000000000000000000000000000000000000000000000000000000081526004016121a390614893565b60405180910390fd5b6000600460008381526020019081526020016000209050600181600b0160016101000a81548160ff02191690831515021790555060008090505b816003018054905081101561235c576000809054906101000a900473ffffffffffffffffffffffffffffffffffffffff1673ffffffffffffffffffffffffffffffffffffffff16630825f38f83600401838154811061224157fe5b906000526020600020015484600301848154811061225b57fe5b9060005260206000200160009054906101000a900473ffffffffffffffffffffffffffffffffffffffff1685600401858154811061229557fe5b90600052602060002001548660050186815481106122af57fe5b906000526020600020018760060187815481106122c857fe5b9060005260206000200188600201546040518763ffffffff1660e01b81526004016122f7959493929190614642565b6000604051808303818588803b15801561231057600080fd5b505af1158015612324573d6000803e3d6000fd5b50505050506040513d6000823e3d601f19601f8201168201806040525081019061234e91906132d6565b5080806001019150506121e6565b507f712ae1383f79ac853f8d882153778e0260ef8f03b504e2866e0593e04d2b291f8260405161238c9190614b0e565b60405180910390a15050565b600160078111156123a557fe5b6123ae83610be9565b60078111156123b957fe5b146123f9576040517f08c379a00000000000000000000000000000000000000000000000000000000081526004016123f090614a93565b60405180910390fd5b6000600460008481526020019081526020016000209050600081600c0160008673ffffffffffffffffffffffffffffffffffffffff1673ffffffffffffffffffffffffffffffffffffffff1681526020019081526020016000209050600015158160000160009054906101000a900460ff161515146124ad576040517f08c379a00000000000000000000000000000000000000000000000000000000081526004016124a4906148f3565b60405180910390fd5b6000600160009054906101000a900473ffffffffffffffffffffffffffffffffffffffff1673ffffffffffffffffffffffffffffffffffffffff1663782d6fe18785600701546040518363ffffffff1660e01b8152600401612510929190614573565b60206040518083038186803b15801561252857600080fd5b505afa15801561253c573d6000803e3d6000fd5b505050506040513d601f19601f820116820180604052508101906125609190613458565b90508315612591576125848360090154826bffffffffffffffffffffffff16612667565b83600901819055506125b6565b6125ad83600a0154826bffffffffffffffffffffffff16612667565b83600a01819055505b60018260000160006101000a81548160ff021916908315150217905550838260000160016101000a81548160ff021916908315150217905550808260000160026101000a8154816bffffffffffffffffffffffff02191690836bffffffffffffffffffffffff1602179055507f877856338e13f63d0c36822ff0ef736b80934cd90574a3a5bc9262c39d217c4686868684604051612657949392919061459c565b60405180910390a1505050505050565b6000808284019050838110156126b2576040517f08c379a00000000000000000000000000000000000000000000000000000000081526004016126a990614973565b60405180910390fd5b8091505092915050565b600082821115612701576040517f08c379a00000000000000000000000000000000000000000000000000000000081526004016126f890614ab3565b60405180910390fd5b818303905092915050565b6000804690508091505090565b6000809054906101000a900473ffffffffffffffffffffffffffffffffffffffff1673ffffffffffffffffffffffffffffffffffffffff1663f2b06537868686868660405160200161276f9594939291906145e1565b604051602081830303815290604052805190602001206040518263ffffffff1660e01b81526004016127a19190614704565b60206040518083038186803b1580156127b957600080fd5b505afa1580156127cd573d6000803e3d6000fd5b505050506040513d601f19601f820116820180604052508101906127f19190613284565b15612831576040517f08c379a0000000000000000000000000000000000000000000000000000000008152600401612828906149d3565b60405180910390fd5b6000809054906101000a900473ffffffffffffffffffffffffffffffffffffffff1673ffffffffffffffffffffffffffffffffffffffff16633a66f90186868686866040518663ffffffff1660e01b81526004016128939594939291906145e1565b602060405180830381600087803b1580156128ad57600080fd5b505af11580156128c1573d6000803e3d6000fd5b505050506040513d601f19601f820116820180604052508101906128e591906132ad565b505050505050565b604051806101a0016040528060008152602001600073ffffffffffffffffffffffffffffffffffffffff1681526020016000815260200160608152602001606081526020016060815260200160608152602001600081526020016000815260200160008152602001600081526020016000151581526020016000151581525090565b8280548282559060005260206000209081019282156129e8579160200282015b828111156129e75782518260006101000a81548173ffffffffffffffffffffffffffffffffffffffff021916908373ffffffffffffffffffffffffffffffffffffffff1602179055509160200191906001019061298f565b5b5090506129f59190612b39565b5090565b828054828255906000526020600020908101928215612a35579160200282015b82811115612a34578251825591602001919060010190612a19565b5b509050612a429190612b7c565b5090565b828054828255906000526020600020908101928215612a95579160200282015b82811115612a94578251829080519060200190612a84929190612ba1565b5091602001919060010190612a66565b5b509050612aa29190612c21565b5090565b828054828255906000526020600020908101928215612af5579160200282015b82811115612af4578251829080519060200190612ae4929190612c4d565b5091602001919060010190612ac6565b5b509050612b029190612ccd565b5090565b604051806060016040528060001515815260200160001515815260200160006bffffffffffffffffffffffff1681525090565b612b7991905b80821115612b7557600081816101000a81549073ffffffffffffffffffffffffffffffffffffffff021916905550600101612b3f565b5090565b90565b612b9e91905b80821115612b9a576000816000905550600101612b82565b5090565b90565b828054600181600116156101000203166002900490600052602060002090601f016020900481019282601f10612be257805160ff1916838001178555612c10565b82800160010185558215612c10579182015b82811115612c0f578251825591602001919060010190612bf4565b5b509050612c1d9190612b7c565b5090565b612c4a91905b80821115612c465760008181612c3d9190612cf9565b50600101612c27565b5090565b90565b828054600181600116156101000203166002900490600052602060002090601f016020900481019282601f10612c8e57805160ff1916838001178555612cbc565b82800160010185558215612cbc579182015b82811115612cbb578251825591602001919060010190612ca0565b5b509050612cc99190612b7c565b5090565b612cf691905b80821115612cf25760008181612ce99190612d41565b50600101612cd3565b5090565b90565b50805460018160011615610100020316600290046000825580601f10612d1f5750612d3e565b601f016020900490600052602060002090810190612d3d9190612b7c565b5b50565b50805460018160011615610100020316600290046000825580601f10612d675750612d86565b601f016020900490600052602060002090810190612d859190612b7c565b5b50565b600081359050612d98816150cf565b92915050565b600082601f830112612daf57600080fd5b8135612dc2612dbd82614cbc565b614c8f565b91508181835260208401935060208101905083856020840282011115612de757600080fd5b60005b83811015612e175781612dfd8882612d89565b845260208401935060208301925050600181019050612dea565b5050505092915050565b600082601f830112612e3257600080fd5b8135612e45612e4082614ce4565b614c8f565b9150818183526020840193506020810190508360005b83811015612e8b5781358601612e718882612fe0565b845260208401935060208301925050600181019050612e5b565b5050505092915050565b600082601f830112612ea657600080fd5b8135612eb9612eb482614d0c565b614c8f565b9150818183526020840193506020810190508360005b83811015612eff5781358601612ee58882613088565b845260208401935060208301925050600181019050612ecf565b5050505092915050565b600082601f830112612f1a57600080fd5b8135612f2d612f2882614d34565b614c8f565b91508181835260208401935060208101905083856020840282011115612f5257600080fd5b60005b83811015612f825781612f6888826130dc565b845260208401935060208301925050600181019050612f55565b5050505092915050565b600081359050612f9b816150e6565b92915050565b600081519050612fb0816150e6565b92915050565b600081359050612fc5816150fd565b92915050565b600081519050612fda816150fd565b92915050565b600082601f830112612ff157600080fd5b8135613004612fff82614d5c565b614c8f565b9150808252602083016020830185838301111561302057600080fd5b61302b838284615065565b50505092915050565b600082601f83011261304557600080fd5b815161305861305382614d5c565b614c8f565b9150808252602083016020830185838301111561307457600080fd5b61307f838284615074565b50505092915050565b600082601f83011261309957600080fd5b81356130ac6130a782614d88565b614c8f565b915080825260208301602083018583830111156130c857600080fd5b6130d3838284615065565b50505092915050565b6000813590506130eb81615114565b92915050565b60008151905061310081615114565b92915050565b6000813590506131158161512b565b92915050565b60008151905061312a81615142565b92915050565b60006020828403121561314257600080fd5b600061315084828501612d89565b91505092915050565b6000806040838503121561316c57600080fd5b600061317a85828601612d89565b925050602061318b858286016130dc565b9150509250929050565b600080600080600060a086880312156131ad57600080fd5b600086013567ffffffffffffffff8111156131c757600080fd5b6131d388828901612d9e565b955050602086013567ffffffffffffffff8111156131f057600080fd5b6131fc88828901612f09565b945050604086013567ffffffffffffffff81111561321957600080fd5b61322588828901612e95565b935050606086013567ffffffffffffffff81111561324257600080fd5b61324e88828901612e21565b925050608086013567ffffffffffffffff81111561326b57600080fd5b61327788828901613088565b9150509295509295909350565b60006020828403121561329657600080fd5b60006132a484828501612fa1565b91505092915050565b6000602082840312156132bf57600080fd5b60006132cd84828501612fcb565b91505092915050565b6000602082840312156132e857600080fd5b600082015167ffffffffffffffff81111561330257600080fd5b61330e84828501613034565b91505092915050565b60006020828403121561332957600080fd5b6000613337848285016130dc565b91505092915050565b60006020828403121561335257600080fd5b6000613360848285016130f1565b91505092915050565b6000806040838503121561337c57600080fd5b600061338a858286016130dc565b925050602061339b85828601612d89565b9150509250929050565b600080604083850312156133b857600080fd5b60006133c6858286016130dc565b92505060206133d785828601612f8c565b9150509250929050565b600080600080600060a086880312156133f957600080fd5b6000613407888289016130dc565b955050602061341888828901612f8c565b945050604061342988828901613106565b935050606061343a88828901612fb6565b925050608061344b88828901612fb6565b9150509295509295909350565b60006020828403121561346a57600080fd5b60006134788482850161311b565b91505092915050565b600061348d83836134e8565b60208301905092915050565b60006134a583836136f0565b905092915050565b60006134b9838361382d565b905092915050565b60006134cd8383614424565b60208301905092915050565b6134e281614fb1565b82525050565b6134f181614f27565b82525050565b61350081614f27565b82525050565b600061351182614e1e565b61351b8185614e94565b935061352683614db4565b8060005b8381101561355757815161353e8882613481565b975061354983614e60565b92505060018101905061352a565b5085935050505092915050565b600061356f82614e29565b6135798185614ea5565b93508360208202850161358b85614dc4565b8060005b858110156135c757848403895281516135a88582613499565b94506135b383614e6d565b925060208a0199505060018101905061358f565b50829750879550505050505092915050565b60006135e482614e34565b6135ee8185614eb6565b93508360208202850161360085614dd4565b8060005b8581101561363c578484038952815161361d85826134ad565b945061362883614e7a565b925060208a01995050600181019050613604565b50829750879550505050505092915050565b600061365982614e3f565b6136638185614ec7565b935061366e83614de4565b8060005b8381101561369f57815161368688826134c1565b975061369183614e87565b925050600181019050613672565b5085935050505092915050565b6136b581614f39565b82525050565b6136c481614f39565b82525050565b6136d381614f45565b82525050565b6136ea6136e582614f45565b6150a7565b82525050565b60006136fb82614e4a565b6137058185614ed8565b9350613715818560208601615074565b61371e816150b1565b840191505092915050565b600061373482614e4a565b61373e8185614ee9565b935061374e818560208601615074565b613757816150b1565b840191505092915050565b60008154600181166000811461377f57600181146137a5576137e9565b607f60028304166137908187614ee9565b955060ff1983168652602086019350506137e9565b600282046137b38187614ee9565b95506137be85614df4565b60005b828110156137e0578154818901526001820191506020810190506137c1565b80880195505050505b505092915050565b6137fa81614fc3565b82525050565b61380981614fe7565b82525050565b6138188161500b565b82525050565b6138278161501d565b82525050565b600061383882614e55565b6138428185614efa565b9350613852818560208601615074565b61385b816150b1565b840191505092915050565b600061387182614e55565b61387b8185614f0b565b935061388b818560208601615074565b613894816150b1565b840191505092915050565b6000815460018116600081146138bc57600181146138e257613926565b607f60028304166138cd8187614f0b565b955060ff198316865260208601935050613926565b600282046138f08187614f0b565b95506138fb85614e09565b60005b8281101561391d578154818901526001820191506020810190506138fe565b80880195505050505b505092915050565b600061393b603983614f0b565b91507f476f7665726e6f72416c7068613a3a5f5f61636365707441646d696e3a20736560008301527f6e646572206d75737420626520676f7620677561726469616e000000000000006020830152604082019050919050565b60006139a1604483614f0b565b91507f476f7665726e6f72416c7068613a3a71756575653a2070726f706f73616c206360008301527f616e206f6e6c792062652071756575656420696620697420697320737563636560208301527f65646564000000000000000000000000000000000000000000000000000000006040830152606082019050919050565b6000613a2d604583614f0b565b91507f476f7665726e6f72416c7068613a3a657865637574653a2070726f706f73616c60008301527f2063616e206f6e6c79206265206578656375746564206966206974206973207160208301527f75657565640000000000000000000000000000000000000000000000000000006040830152606082019050919050565b6000613ab9600283614f1c565b91507f19010000000000000000000000000000000000000000000000000000000000006000830152600282019050919050565b6000613af9604c83614f0b565b91507f476f7665726e6f72416c7068613a3a5f5f6578656375746553657454696d656c60008301527f6f636b50656e64696e6741646d696e3a2073656e646572206d7573742062652060208301527f676f7620677561726469616e00000000000000000000000000000000000000006040830152606082019050919050565b6000613b85601883614f0b565b91507f73657450656e64696e6741646d696e28616464726573732900000000000000006000830152602082019050919050565b6000613bc5602983614f0b565b91507f476f7665726e6f72416c7068613a3a73746174653a20696e76616c696420707260008301527f6f706f73616c20696400000000000000000000000000000000000000000000006020830152604082019050919050565b6000613c2b602d83614f0b565b91507f476f7665726e6f72416c7068613a3a5f63617374566f74653a20766f7465722060008301527f616c726561647920766f746564000000000000000000000000000000000000006020830152604082019050919050565b6000613c91605983614f0b565b91507f476f7665726e6f72416c7068613a3a70726f706f73653a206f6e65206c69766560008301527f2070726f706f73616c207065722070726f706f7365722c20666f756e6420616e60208301527f20616c72656164792070656e64696e672070726f706f73616c000000000000006040830152606082019050919050565b6000613d1d604a83614f0b565b91507f476f7665726e6f72416c7068613a3a5f5f717565756553657454696d656c6f6360008301527f6b50656e64696e6741646d696e3a2073656e646572206d75737420626520676f60208301527f7620677561726469616e000000000000000000000000000000000000000000006040830152606082019050919050565b6000613da9602883614f0b565b91507f476f7665726e6f72416c7068613a3a70726f706f73653a20746f6f206d616e7960008301527f20616374696f6e730000000000000000000000000000000000000000000000006020830152604082019050919050565b6000613e0f601183614f0b565b91507f6164646974696f6e206f766572666c6f770000000000000000000000000000006000830152602082019050919050565b6000613e4f604383614f1c565b91507f454950373132446f6d61696e28737472696e67206e616d652c75696e7432353660008301527f20636861696e49642c6164647265737320766572696679696e67436f6e74726160208301527f63742900000000000000000000000000000000000000000000000000000000006040830152604382019050919050565b6000613edb602783614f1c565b91507f42616c6c6f742875696e743235362070726f706f73616c49642c626f6f6c207360008301527f7570706f727429000000000000000000000000000000000000000000000000006020830152602782019050919050565b6000613f41604483614f0b565b91507f476f7665726e6f72416c7068613a3a70726f706f73653a2070726f706f73616c60008301527f2066756e6374696f6e20696e666f726d6174696f6e206172697479206d69736d60208301527f61746368000000000000000000000000000000000000000000000000000000006040830152606082019050919050565b6000613fcd602f83614f0b565b91507f476f7665726e6f72416c7068613a3a63616e63656c3a2070726f706f7365722060008301527f61626f7665207468726573686f6c6400000000000000000000000000000000006020830152604082019050919050565b6000614033604483614f0b565b91507f476f7665726e6f72416c7068613a3a5f71756575654f725265766572743a207060008301527f726f706f73616c20616374696f6e20616c72656164792071756575656420617460208301527f20657461000000000000000000000000000000000000000000000000000000006040830152606082019050919050565b60006140bf602c83614f0b565b91507f476f7665726e6f72416c7068613a3a70726f706f73653a206d7573742070726f60008301527f7669646520616374696f6e7300000000000000000000000000000000000000006020830152604082019050919050565b6000614125603f83614f0b565b91507f476f7665726e6f72416c7068613a3a70726f706f73653a2070726f706f73657260008301527f20766f7465732062656c6f772070726f706f73616c207468726573686f6c64006020830152604082019050919050565b600061418b602f83614f0b565b91507f476f7665726e6f72416c7068613a3a63617374566f746542795369673a20696e60008301527f76616c6964207369676e617475726500000000000000000000000000000000006020830152604082019050919050565b60006141f1605883614f0b565b91507f476f7665726e6f72416c7068613a3a70726f706f73653a206f6e65206c69766560008301527f2070726f706f73616c207065722070726f706f7365722c20666f756e6420616e60208301527f20616c7265616479206163746976652070726f706f73616c00000000000000006040830152606082019050919050565b600061427d603683614f0b565b91507f476f7665726e6f72416c7068613a3a63616e63656c3a2063616e6e6f7420636160008301527f6e63656c2065786563757465642070726f706f73616c000000000000000000006020830152604082019050919050565b60006142e3602a83614f0b565b91507f476f7665726e6f72416c7068613a3a5f63617374566f74653a20766f74696e6760008301527f20697320636c6f736564000000000000000000000000000000000000000000006020830152604082019050919050565b6000614349601583614f0b565b91507f7375627472616374696f6e20756e646572666c6f7700000000000000000000006000830152602082019050919050565b6000614389603683614f0b565b91507f476f7665726e6f72416c7068613a3a5f5f61626469636174653a2073656e646560008301527f72206d75737420626520676f7620677561726469616e000000000000000000006020830152604082019050919050565b6060820160008201516143f860008501826136ac565b50602082015161440b60208501826136ac565b50604082015161441e6040850182614460565b50505050565b61442d81614f82565b82525050565b61443c81614f82565b82525050565b61444b81614f8c565b82525050565b61445a81615053565b82525050565b61446981614f99565b82525050565b600061447a82613aac565b915061448682856136d9565b60208201915061449682846136d9565b6020820191508190509392505050565b60006144b182613e42565b9150819050919050565b60006144c682613ece565b9150819050919050565b60006020820190506144e560008301846134f7565b92915050565b600060408201905061450060008301856134d9565b61450d6020830184614433565b9392505050565b600060a08201905061452960008301876134f7565b614536602083018661381e565b818103604083015261454781613b78565b9050818103606083015261455b8185613729565b905061456a6080830184614433565b95945050505050565b600060408201905061458860008301856134f7565b6145956020830184614433565b9392505050565b60006080820190506145b160008301876134f7565b6145be6020830186614433565b6145cb60408301856136bb565b6145d86060830184614451565b95945050505050565b600060a0820190506145f660008301886134f7565b6146036020830187614433565b81810360408301526146158186613866565b905081810360608301526146298185613729565b90506146386080830184614433565b9695505050505050565b600060a08201905061465760008301886134f7565b6146646020830187614433565b8181036040830152614676818661389f565b9050818103606083015261468a8185613762565b90506146996080830184614433565b9695505050505050565b600060808201905081810360008301526146bd8187613506565b905081810360208301526146d1818661364e565b905081810360408301526146e581856135d9565b905081810360608301526146f98184613564565b905095945050505050565b600060208201905061471960008301846136ca565b92915050565b600060808201905061473460008301876136ca565b61474160208301866136ca565b61474e6040830185614433565b61475b60608301846134f7565b95945050505050565b600060608201905061477960008301866136ca565b6147866020830185614433565b61479360408301846136bb565b949350505050565b60006080820190506147b060008301876136ca565b6147bd6020830186614442565b6147ca60408301856136ca565b6147d760608301846136ca565b95945050505050565b60006020820190506147f560008301846137f1565b92915050565b60006020820190506148106000830184613800565b92915050565b600060208201905061482b600083018461380f565b92915050565b6000602082019050818103600083015261484b8184613866565b905092915050565b6000602082019050818103600083015261486c8161392e565b9050919050565b6000602082019050818103600083015261488c81613994565b9050919050565b600060208201905081810360008301526148ac81613a20565b9050919050565b600060208201905081810360008301526148cc81613aec565b9050919050565b600060208201905081810360008301526148ec81613bb8565b9050919050565b6000602082019050818103600083015261490c81613c1e565b9050919050565b6000602082019050818103600083015261492c81613c84565b9050919050565b6000602082019050818103600083015261494c81613d10565b9050919050565b6000602082019050818103600083015261496c81613d9c565b9050919050565b6000602082019050818103600083015261498c81613e02565b9050919050565b600060208201905081810360008301526149ac81613f34565b9050919050565b600060208201905081810360008301526149cc81613fc0565b9050919050565b600060208201905081810360008301526149ec81614026565b9050919050565b60006020820190508181036000830152614a0c816140b2565b9050919050565b60006020820190508181036000830152614a2c81614118565b9050919050565b60006020820190508181036000830152614a4c8161417e565b9050919050565b60006020820190508181036000830152614a6c816141e4565b9050919050565b60006020820190508181036000830152614a8c81614270565b9050919050565b60006020820190508181036000830152614aac816142d6565b9050919050565b60006020820190508181036000830152614acc8161433c565b9050919050565b60006020820190508181036000830152614aec8161437c565b9050919050565b6000606082019050614b0860008301846143e2565b92915050565b6000602082019050614b236000830184614433565b92915050565b600061012082019050614b3f600083018c614433565b614b4c602083018b6134d9565b8181036040830152614b5e818a613506565b90508181036060830152614b72818961364e565b90508181036080830152614b8681886135d9565b905081810360a0830152614b9a8187613564565b9050614ba960c0830186614433565b614bb660e0830185614433565b818103610100830152614bc98184613866565b90509a9950505050505050505050565b600061012082019050614bef600083018c614433565b614bfc602083018b6134f7565b614c09604083018a614433565b614c166060830189614433565b614c236080830188614433565b614c3060a0830187614433565b614c3d60c0830186614433565b614c4a60e08301856136bb565b614c586101008301846136bb565b9a9950505050505050505050565b6000604082019050614c7b6000830185614433565b614c886020830184614433565b9392505050565b6000604051905081810181811067ffffffffffffffff82111715614cb257600080fd5b8060405250919050565b600067ffffffffffffffff821115614cd357600080fd5b602082029050602081019050919050565b600067ffffffffffffffff821115614cfb57600080fd5b602082029050602081019050919050565b600067ffffffffffffffff821115614d2357600080fd5b602082029050602081019050919050565b600067ffffffffffffffff821115614d4b57600080fd5b602082029050602081019050919050565b600067ffffffffffffffff821115614d7357600080fd5b601f19601f8301169050602081019050919050565b600067ffffffffffffffff821115614d9f57600080fd5b601f19601f8301169050602081019050919050565b6000819050602082019050919050565b6000819050602082019050919050565b6000819050602082019050919050565b6000819050602082019050919050565b60008190508160005260206000209050919050565b60008190508160005260206000209050919050565b600081519050919050565b600081519050919050565b600081519050919050565b600081519050919050565b600081519050919050565b600081519050919050565b6000602082019050919050565b6000602082019050919050565b6000602082019050919050565b6000602082019050919050565b600082825260208201905092915050565b600082825260208201905092915050565b600082825260208201905092915050565b600082825260208201905092915050565b600082825260208201905092915050565b600082825260208201905092915050565b600082825260208201905092915050565b600082825260208201905092915050565b600081905092915050565b6000614f3282614f62565b9050919050565b60008115159050919050565b6000819050919050565b6000819050614f5d826150c2565b919050565b600073ffffffffffffffffffffffffffffffffffffffff82169050919050565b6000819050919050565b600060ff82169050919050565b60006bffffffffffffffffffffffff82169050919050565b6000614fbc8261502f565b9050919050565b6000614fce82614fd5565b9050919050565b6000614fe082614f62565b9050919050565b6000614ff282614ff9565b9050919050565b600061500482614f62565b9050919050565b600061501682614f4f565b9050919050565b600061502882614f82565b9050919050565b600061503a82615041565b9050919050565b600061504c82614f62565b9050919050565b600061505e82614f99565b9050919050565b82818337600083830152505050565b60005b83811015615092578082015181840152602081019050615077565b838111156150a1576000848401525b50505050565b6000819050919050565b6000601f19601f8301169050919050565b600881106150cc57fe5b50565b6150d881614f27565b81146150e357600080fd5b50565b6150ef81614f39565b81146150fa57600080fd5b50565b61510681614f45565b811461511157600080fd5b50565b61511d81614f82565b811461512857600080fd5b50565b61513481614f8c565b811461513f57600080fd5b50565b61514b81614f99565b811461515657600080fd5b5056fea2646970667358221220dfdc2d570e2cc013756e0cfe845a512f5b0e1c2957955560b9fa5a9b9999f20a64736f6c634300060a0033",
  "linkReferences": {},
  "deployedLinkReferences": {}
}