{
  "_format": "hh-sol-artifact-1",
  "contractName": "TrueLender",
  "sourceName": "contracts/truefi/TrueLender.sol",
  "abi": [
    {
      "anonymous": false,
      "inputs": [
        {
          "indexed": true,
          "internalType": "address",
          "name": "who",
          "type": "address"
        },
        {
          "indexed": false,
          "internalType": "bool",
          "name": "status",
          "type": "bool"
        }
      ],
      "name": "Allowed",
      "type": "event"
    },
    {
      "anonymous": false,
      "inputs": [
        {
          "indexed": false,
          "internalType": "uint256",
          "name": "minApy",
          "type": "uint256"
        },
        {
          "indexed": false,
          "internalType": "uint256",
          "name": "maxApy",
          "type": "uint256"
        }
      ],
      "name": "ApyLimitsChanged",
      "type": "event"
    },
    {
      "anonymous": false,
      "inputs": [
        {
          "indexed": true,
          "internalType": "address",
          "name": "loanToken",
          "type": "address"
        },
        {
          "indexed": false,
          "internalType": "uint256",
          "name": "amount",
          "type": "uint256"
        }
      ],
      "name": "Funded",
      "type": "event"
    },
    {
      "anonymous": false,
      "inputs": [
        {
          "indexed": true,
          "internalType": "address",
          "name": "previousOwner",
          "type": "address"
        },
        {
          "indexed": true,
          "internalType": "address",
          "name": "newOwner",
          "type": "address"
        }
      ],
      "name": "OwnershipTransferred",
      "type": "event"
    },
    {
      "anonymous": false,
      "inputs": [
        {
          "indexed": false,
          "internalType": "uint256",
          "name": "participationFactor",
          "type": "uint256"
        }
      ],
      "name": "ParticipationFactorChanged",
      "type": "event"
    },
    {
      "anonymous": false,
      "inputs": [
        {
          "indexed": true,
          "internalType": "address",
          "name": "loanToken",
          "type": "address"
        },
        {
          "indexed": false,
          "internalType": "uint256",
          "name": "amount",
          "type": "uint256"
        }
      ],
      "name": "Reclaimed",
      "type": "event"
    },
    {
      "anonymous": false,
      "inputs": [
        {
          "indexed": false,
          "internalType": "uint256",
          "name": "riskAversion",
          "type": "uint256"
        }
      ],
      "name": "RiskAversionChanged",
      "type": "event"
    },
    {
      "anonymous": false,
      "inputs": [
        {
          "indexed": false,
          "internalType": "uint256",
          "name": "minSize",
          "type": "uint256"
        },
        {
          "indexed": false,
          "internalType": "uint256",
          "name": "maxSize",
          "type": "uint256"
        }
      ],
      "name": "SizeLimitsChanged",
      "type": "event"
    },
    {
      "anonymous": false,
      "inputs": [
        {
          "indexed": false,
          "internalType": "uint256",
          "name": "minTerm",
          "type": "uint256"
        },
        {
          "indexed": false,
          "internalType": "uint256",
          "name": "maxTerm",
          "type": "uint256"
        }
      ],
      "name": "TermLimitsChanged",
      "type": "event"
    },
    {
      "anonymous": false,
      "inputs": [
        {
          "indexed": false,
          "internalType": "uint256",
          "name": "votingPeriod",
          "type": "uint256"
        }
      ],
      "name": "VotingPeriodChanged",
      "type": "event"
    },
    {
      "inputs": [
        {
          "internalType": "address",
          "name": "who",
          "type": "address"
        },
        {
          "internalType": "bool",
          "name": "status",
          "type": "bool"
        }
      ],
      "name": "allow",
      "outputs": [],
      "stateMutability": "nonpayable",
      "type": "function"
    },
    {
      "inputs": [
        {
          "internalType": "address",
          "name": "",
          "type": "address"
        }
      ],
      "name": "allowedBorrowers",
      "outputs": [
        {
          "internalType": "bool",
          "name": "",
          "type": "bool"
        }
      ],
      "stateMutability": "view",
      "type": "function"
    },
    {
      "inputs": [],
      "name": "currencyToken",
      "outputs": [
        {
          "internalType": "contract IERC20",
          "name": "",
          "type": "address"
        }
      ],
      "stateMutability": "view",
      "type": "function"
    },
    {
      "inputs": [
        {
          "internalType": "address",
          "name": "recipient",
          "type": "address"
        },
        {
          "internalType": "uint256",
          "name": "numerator",
          "type": "uint256"
        },
        {
          "internalType": "uint256",
          "name": "denominator",
          "type": "uint256"
        }
      ],
      "name": "distribute",
      "outputs": [],
      "stateMutability": "nonpayable",
      "type": "function"
    },
    {
      "inputs": [
        {
          "internalType": "contract ILoanToken",
          "name": "loanToken",
          "type": "address"
        }
      ],
      "name": "fund",
      "outputs": [],
      "stateMutability": "nonpayable",
      "type": "function"
    },
    {
      "inputs": [
        {
          "internalType": "contract ITrueFiPool",
          "name": "_pool",
          "type": "address"
        },
        {
          "internalType": "contract ITrueRatingAgency",
          "name": "_ratingAgency",
          "type": "address"
        }
      ],
      "name": "initialize",
      "outputs": [],
      "stateMutability": "nonpayable",
      "type": "function"
    },
    {
      "inputs": [
        {
          "internalType": "uint256",
          "name": "apy",
          "type": "uint256"
        }
      ],
      "name": "loanIsAttractiveEnough",
      "outputs": [
        {
          "internalType": "bool",
          "name": "",
          "type": "bool"
        }
      ],
      "stateMutability": "view",
      "type": "function"
    },
    {
      "inputs": [
        {
          "internalType": "uint256",
          "name": "apy",
          "type": "uint256"
        },
        {
          "internalType": "uint256",
          "name": "term",
          "type": "uint256"
        },
        {
          "internalType": "uint256",
          "name": "yesVotes",
          "type": "uint256"
        },
        {
          "internalType": "uint256",
          "name": "noVotes",
          "type": "uint256"
        }
      ],
      "name": "loanIsCredible",
      "outputs": [
        {
          "internalType": "bool",
          "name": "",
          "type": "bool"
        }
      ],
      "stateMutability": "view",
      "type": "function"
    },
    {
      "inputs": [
        {
          "internalType": "uint256",
          "name": "amount",
          "type": "uint256"
        }
      ],
      "name": "loanSizeWithinBounds",
      "outputs": [
        {
          "internalType": "bool",
          "name": "",
          "type": "bool"
        }
      ],
      "stateMutability": "view",
      "type": "function"
    },
    {
      "inputs": [
        {
          "internalType": "uint256",
          "name": "term",
          "type": "uint256"
        }
      ],
      "name": "loanTermWithinBounds",
      "outputs": [
        {
          "internalType": "bool",
          "name": "",
          "type": "bool"
        }
      ],
      "stateMutability": "view",
      "type": "function"
    },
    {
      "inputs": [],
      "name": "loans",
      "outputs": [
        {
          "internalType": "contract ILoanToken[]",
          "name": "result",
          "type": "address[]"
        }
      ],
      "stateMutability": "view",
      "type": "function"
    },
    {
      "inputs": [],
      "name": "maxApy",
      "outputs": [
        {
          "internalType": "uint256",
          "name": "",
          "type": "uint256"
        }
      ],
      "stateMutability": "view",
      "type": "function"
    },
    {
      "inputs": [],
      "name": "maxSize",
      "outputs": [
        {
          "internalType": "uint256",
          "name": "",
          "type": "uint256"
        }
      ],
      "stateMutability": "view",
      "type": "function"
    },
    {
      "inputs": [],
      "name": "maxTerm",
      "outputs": [
        {
          "internalType": "uint256",
          "name": "",
          "type": "uint256"
        }
      ],
      "stateMutability": "view",
      "type": "function"
    },
    {
      "inputs": [],
      "name": "minApy",
      "outputs": [
        {
          "internalType": "uint256",
          "name": "",
          "type": "uint256"
        }
      ],
      "stateMutability": "view",
      "type": "function"
    },
    {
      "inputs": [],
      "name": "minSize",
      "outputs": [
        {
          "internalType": "uint256",
          "name": "",
          "type": "uint256"
        }
      ],
      "stateMutability": "view",
      "type": "function"
    },
    {
      "inputs": [],
      "name": "minTerm",
      "outputs": [
        {
          "internalType": "uint256",
          "name": "",
          "type": "uint256"
        }
      ],
      "stateMutability": "view",
      "type": "function"
    },
    {
      "inputs": [],
      "name": "owner",
      "outputs": [
        {
          "internalType": "address",
          "name": "",
          "type": "address"
        }
      ],
      "stateMutability": "view",
      "type": "function"
    },
    {
      "inputs": [],
      "name": "participationFactor",
      "outputs": [
        {
          "internalType": "uint256",
          "name": "",
          "type": "uint256"
        }
      ],
      "stateMutability": "view",
      "type": "function"
    },
    {
      "inputs": [],
      "name": "pool",
      "outputs": [
        {
          "internalType": "contract ITrueFiPool",
          "name": "",
          "type": "address"
        }
      ],
      "stateMutability": "view",
      "type": "function"
    },
    {
      "inputs": [],
      "name": "ratingAgency",
      "outputs": [
        {
          "internalType": "contract ITrueRatingAgency",
          "name": "",
          "type": "address"
        }
      ],
      "stateMutability": "view",
      "type": "function"
    },
    {
      "inputs": [
        {
          "internalType": "contract ILoanToken",
          "name": "loanToken",
          "type": "address"
        }
      ],
      "name": "reclaim",
      "outputs": [],
      "stateMutability": "nonpayable",
      "type": "function"
    },
    {
      "inputs": [],
      "name": "renounceOwnership",
      "outputs": [],
      "stateMutability": "nonpayable",
      "type": "function"
    },
    {
      "inputs": [],
      "name": "riskAversion",
      "outputs": [
        {
          "internalType": "uint256",
          "name": "",
          "type": "uint256"
        }
      ],
      "stateMutability": "view",
      "type": "function"
    },
    {
      "inputs": [
        {
          "internalType": "uint256",
          "name": "newMinApy",
          "type": "uint256"
        },
        {
          "internalType": "uint256",
          "name": "newMaxApy",
          "type": "uint256"
        }
      ],
      "name": "setApyLimits",
      "outputs": [],
      "stateMutability": "nonpayable",
      "type": "function"
    },
    {
      "inputs": [
        {
          "internalType": "uint256",
          "name": "newParticipationFactor",
          "type": "uint256"
        }
      ],
      "name": "setParticipationFactor",
      "outputs": [],
      "stateMutability": "nonpayable",
      "type": "function"
    },
    {
      "inputs": [
        {
          "internalType": "uint256",
          "name": "newRiskAversion",
          "type": "uint256"
        }
      ],
      "name": "setRiskAversion",
      "outputs": [],
      "stateMutability": "nonpayable",
      "type": "function"
    },
    {
      "inputs": [
        {
          "internalType": "uint256",
          "name": "min",
          "type": "uint256"
        },
        {
          "internalType": "uint256",
          "name": "max",
          "type": "uint256"
        }
      ],
      "name": "setSizeLimits",
      "outputs": [],
      "stateMutability": "nonpayable",
      "type": "function"
    },
    {
      "inputs": [
        {
          "internalType": "uint256",
          "name": "min",
          "type": "uint256"
        },
        {
          "internalType": "uint256",
          "name": "max",
          "type": "uint256"
        }
      ],
      "name": "setTermLimits",
      "outputs": [],
      "stateMutability": "nonpayable",
      "type": "function"
    },
    {
      "inputs": [
        {
          "internalType": "uint256",
          "name": "newVotingPeriod",
          "type": "uint256"
        }
      ],
      "name": "setVotingPeriod",
      "outputs": [],
      "stateMutability": "nonpayable",
      "type": "function"
    },
    {
      "inputs": [
        {
          "internalType": "address",
          "name": "newOwner",
          "type": "address"
        }
      ],
      "name": "transferOwnership",
      "outputs": [],
      "stateMutability": "nonpayable",
      "type": "function"
    },
    {
      "inputs": [],
      "name": "value",
      "outputs": [
        {
          "internalType": "uint256",
          "name": "",
          "type": "uint256"
        }
      ],
      "stateMutability": "view",
      "type": "function"
    },
    {
      "inputs": [
        {
          "internalType": "uint256",
          "name": "amount",
          "type": "uint256"
        },
        {
          "internalType": "uint256",
          "name": "yesVotes",
          "type": "uint256"
        }
      ],
      "name": "votesThresholdReached",
      "outputs": [
        {
          "internalType": "bool",
          "name": "",
          "type": "bool"
        }
      ],
      "stateMutability": "view",
      "type": "function"
    },
    {
      "inputs": [
        {
          "internalType": "uint256",
          "name": "start",
          "type": "uint256"
        }
      ],
      "name": "votingLastedLongEnough",
      "outputs": [
        {
          "internalType": "bool",
          "name": "",
          "type": "bool"
        }
      ],
      "stateMutability": "view",
      "type": "function"
    },
    {
      "inputs": [],
      "name": "votingPeriod",
      "outputs": [
        {
          "internalType": "uint256",
          "name": "",
          "type": "uint256"
        }
      ],
      "stateMutability": "view",
      "type": "function"
    }
  ],
  "bytecode": "0x60806040526103e8603955610bb8603a55612710603b55613a98603c5569d3c21bcecceda1000000603d556a084595161401484a000000603e5562ed4e00603f5563128a180060405562093a8060415534801561005b57600080fd5b506139fe8061006b6000396000f3fe608060405234801561001057600080fd5b50600436106102115760003560e01c80637e64ede011610125578063cd86db34116100ad578063f2fde38b1161007c578063f2fde38b146108c9578063f3482ee61461090d578063f3ba5ff51461092b578063fc772c8b14610971578063fe0ee115146109b557610211565b8063cd86db34146107c6578063e2c92a52146107e4578063e9946b201461083c578063ea0217cf1461089b57610211565b80638da5cb5b116100f45780638da5cb5b1461067257806392a90387146106bc5780639c201cc314610702578063a643032c14610720578063bd3056251461076a57610211565b80637e64ede01461058a57806380e81732146105a85780638a8ef5a8146105e05780638c31a96e1461060e57610211565b80632565b159116101a8578063485cc95511610177578063485cc95514610454578063624a6cff146104b85780636b2fa374146104fe578063715018a6146105485780637cb0c8f11461055257610211565b80632565b1591461039a5780633579ad1a146103b85780633c5abb66146103fe5780633fa4f2451461043657610211565b806316f0115b116101e457806316f0115b146102c0578063201ff2c41461030a578063230244081461033857806324524a961461037c57610211565b806302a251a314610216578063110496e514610234578063114b0d951461028457806311bd4507146102a2575b600080fd5b61021e610a05565b6040518082815260200191505060405180910390f35b6102826004803603604081101561024a57600080fd5b81019080803573ffffffffffffffffffffffffffffffffffffffff169060200190929190803515159060200190929190505050610a0b565b005b61028c610b82565b6040518082815260200191505060405180910390f35b6102aa610b88565b6040518082815260200191505060405180910390f35b6102c8610b8e565b604051808273ffffffffffffffffffffffffffffffffffffffff1673ffffffffffffffffffffffffffffffffffffffff16815260200191505060405180910390f35b6103366004803603602081101561032057600080fd5b8101908080359060200190929190505050610bb4565b005b61037a6004803603602081101561034e57600080fd5b81019080803573ffffffffffffffffffffffffffffffffffffffff169060200190929190505050610cbf565b005b61038461153f565b6040518082815260200191505060405180910390f35b6103a2611545565b6040518082815260200191505060405180910390f35b6103e4600480360360208110156103ce57600080fd5b810190808035906020019092919050505061154b565b604051808215151515815260200191505060405180910390f35b6104346004803603604081101561041457600080fd5b810190808035906020019092919080359060200190929190505050611568565b005b61043e6116dc565b6040518082815260200191505060405180910390f35b6104b66004803603604081101561046a57600080fd5b81019080803573ffffffffffffffffffffffffffffffffffffffff169060200190929190803573ffffffffffffffffffffffffffffffffffffffff1690602001909291905050506118cc565b005b6104e4600480360360208110156104ce57600080fd5b8101908080359060200190929190505050611c1d565b604051808215151515815260200191505060405180910390f35b610506611c3a565b604051808273ffffffffffffffffffffffffffffffffffffffff1673ffffffffffffffffffffffffffffffffffffffff16815260200191505060405180910390f35b610550611c60565b005b6105886004803603604081101561056857600080fd5b810190808035906020019092919080359060200190929190505050611deb565b005b610592611f5f565b6040518082815260200191505060405180910390f35b6105de600480360360408110156105be57600080fd5b810190808035906020019092919080359060200190929190505050611f65565b005b61060c600480360360208110156105f657600080fd5b81019080803590602001909291905050506120d9565b005b6106586004803603608081101561062457600080fd5b81019080803590602001909291908035906020019092919080359060200190929190803590602001909291905050506121e4565b604051808215151515815260200191505060405180910390f35b61067a612242565b604051808273ffffffffffffffffffffffffffffffffffffffff1673ffffffffffffffffffffffffffffffffffffffff16815260200191505060405180910390f35b6106e8600480360360208110156106d257600080fd5b810190808035906020019092919050505061226c565b604051808215151515815260200191505060405180910390f35b61070a612289565b6040518082815260200191505060405180910390f35b61072861228f565b604051808273ffffffffffffffffffffffffffffffffffffffff1673ffffffffffffffffffffffffffffffffffffffff16815260200191505060405180910390f35b6107ac6004803603602081101561078057600080fd5b81019080803573ffffffffffffffffffffffffffffffffffffffff1690602001909291905050506122b5565b604051808215151515815260200191505060405180910390f35b6107ce6122d5565b6040518082815260200191505060405180910390f35b61083a600480360360608110156107fa57600080fd5b81019080803573ffffffffffffffffffffffffffffffffffffffff16906020019092919080359060200190929190803590602001909291905050506122db565b005b6108446125d0565b6040518080602001828103825283818151815260200191508051906020019060200280838360005b8381101561088757808201518184015260208101905061086c565b505050509050019250505060405180910390f35b6108c7600480360360208110156108b157600080fd5b810190808035906020019092919050505061265e565b005b61090b600480360360208110156108df57600080fd5b81019080803573ffffffffffffffffffffffffffffffffffffffff169060200190929190505050612769565b005b610915612979565b6040518082815260200191505060405180910390f35b6109576004803603602081101561094157600080fd5b810190808035906020019092919050505061297f565b604051808215151515815260200191505060405180910390f35b6109b36004803603602081101561098757600080fd5b81019080803573ffffffffffffffffffffffffffffffffffffffff1690602001909291905050506129a0565b005b6109eb600480360360408110156109cb57600080fd5b81019080803590602001909291908035906020019092919050505061320b565b604051808215151515815260200191505060405180910390f35b60415481565b610a13613258565b73ffffffffffffffffffffffffffffffffffffffff16603360009054906101000a900473ffffffffffffffffffffffffffffffffffffffff1673ffffffffffffffffffffffffffffffffffffffff1614610ad5576040517f08c379a00000000000000000000000000000000000000000000000000000000081526004018080602001828103825260208152602001807f4f776e61626c653a2063616c6c6572206973206e6f7420746865206f776e657281525060200191505060405180910390fd5b80603460008473ffffffffffffffffffffffffffffffffffffffff1673ffffffffffffffffffffffffffffffffffffffff16815260200190815260200160002060006101000a81548160ff0219169083151502179055508173ffffffffffffffffffffffffffffffffffffffff167f64966f3fe2ac8cae5e6f7e4196d1315efafdb78a4377de3887c56fa3b9ac47cb82604051808215151515815260200191505060405180910390a25050565b603d5481565b603b5481565b603660009054906101000a900473ffffffffffffffffffffffffffffffffffffffff1681565b610bbc613258565b73ffffffffffffffffffffffffffffffffffffffff16603360009054906101000a900473ffffffffffffffffffffffffffffffffffffffff1673ffffffffffffffffffffffffffffffffffffffff1614610c7e576040517f08c379a00000000000000000000000000000000000000000000000000000000081526004018080602001828103825260208152602001807f4f776e61626c653a2063616c6c6572206973206e6f7420746865206f776e657281525060200191505060405180910390fd5b80603c819055507fe97afab423880da5e4f704430a2f68dc0d99d17df929fc109050ad52eed6b680816040518082815260200191505060405180910390a150565b603460003373ffffffffffffffffffffffffffffffffffffffff1673ffffffffffffffffffffffffffffffffffffffff16815260200190815260200160002060009054906101000a900460ff16610d61576040517f08c379a000000000000000000000000000000000000000000000000000000000815260040180806020018281038252602b815260200180613771602b913960400191505060405180910390fd5b8073ffffffffffffffffffffffffffffffffffffffff16636e31d80a6040518163ffffffff1660e01b815260040160206040518083038186803b158015610da757600080fd5b505afa158015610dbb573d6000803e3d6000fd5b505050506040513d6020811015610dd157600080fd5b8101908080519060200190929190505050610e37576040517f08c379a00000000000000000000000000000000000000000000000000000000081526004018080602001828103825260298152602001806137486029913960400191505060405180910390fd5b60008060008373ffffffffffffffffffffffffffffffffffffffff1663a5ea11da6040518163ffffffff1660e01b815260040160606040518083038186803b158015610e8257600080fd5b505afa158015610e96573d6000803e3d6000fd5b505050506040513d6060811015610eac57600080fd5b8101908080519060200190929190805190602001909291908051906020019092919050505092509250925060008473ffffffffffffffffffffffffffffffffffffffff16639632e7206040518163ffffffff1660e01b815260040160206040518083038186803b158015610f1f57600080fd5b505afa158015610f33573d6000803e3d6000fd5b505050506040513d6020811015610f4957600080fd5b810190808051906020019092919050505090506000806000603860009054906101000a900473ffffffffffffffffffffffffffffffffffffffff1673ffffffffffffffffffffffffffffffffffffffff166350bc4a98896040518263ffffffff1660e01b8152600401808273ffffffffffffffffffffffffffffffffffffffff1673ffffffffffffffffffffffffffffffffffffffff16815260200191505060606040518083038186803b15801561100057600080fd5b505afa158015611014573d6000803e3d6000fd5b505050506040513d606081101561102a57600080fd5b8101908080519060200190929190805190602001909291908051906020019092919050505092509250925061105e8761226c565b6110b3576040517f08c379a00000000000000000000000000000000000000000000000000000000081526004018080602001828103825260268152602001806138316026913960400191505060405180910390fd5b6110bc8561154b565b611111576040517f08c379a000000000000000000000000000000000000000000000000000000000815260040180806020018281038252602681526020018061379c6026913960400191505060405180910390fd5b61111a86611c1d565b61118c576040517f08c379a00000000000000000000000000000000000000000000000000000000081526004018080602001828103825260208152602001807f547275654c656e6465723a20415059206973206f7574206f6620626f756e647381525060200191505060405180910390fd5b6111958361297f565b6111ea576040517f08c379a00000000000000000000000000000000000000000000000000000000081526004018080602001828103825260288152602001806137c26028913960400191505060405180910390fd5b6111f4878261320b565b611249576040517f08c379a000000000000000000000000000000000000000000000000000000000815260040180806020018281038252602f815260200180613966602f913960400191505060405180910390fd5b611255868683856121e4565b6112aa576040517f08c379a00000000000000000000000000000000000000000000000000000000081526004018080602001828103825260218152602001806137ea6021913960400191505060405180910390fd5b603660009054906101000a900473ffffffffffffffffffffffffffffffffffffffff1673ffffffffffffffffffffffffffffffffffffffff16630ecbcdab88866040518363ffffffff1660e01b81526004018083815260200182815260200192505050600060405180830381600087803b15801561132757600080fd5b505af115801561133b573d6000803e3d6000fd5b50505050603760009054906101000a900473ffffffffffffffffffffffffffffffffffffffff1673ffffffffffffffffffffffffffffffffffffffff1663095ea7b389866040518363ffffffff1660e01b8152600401808373ffffffffffffffffffffffffffffffffffffffff1673ffffffffffffffffffffffffffffffffffffffff16815260200182815260200192505050602060405180830381600087803b1580156113e857600080fd5b505af11580156113fc573d6000803e3d6000fd5b505050506040513d602081101561141257600080fd5b8101908080519060200190929190505050508773ffffffffffffffffffffffffffffffffffffffff1663b60d42886040518163ffffffff1660e01b8152600401600060405180830381600087803b15801561146c57600080fd5b505af1158015611480573d6000803e3d6000fd5b505050506035889080600181540180825580915050600190039060005260206000200160009091909190916101000a81548173ffffffffffffffffffffffffffffffffffffffff021916908373ffffffffffffffffffffffffffffffffffffffff1602179055508773ffffffffffffffffffffffffffffffffffffffff167f5af8184bef8e4b45eb9f6ed7734d04da38ced226495548f46e0c8ff8d7d9a524856040518082815260200191505060405180910390a25050505050505050565b60395481565b603e5481565b6000603f54821015801561156157506040548211155b9050919050565b611570613258565b73ffffffffffffffffffffffffffffffffffffffff16603360009054906101000a900473ffffffffffffffffffffffffffffffffffffffff1673ffffffffffffffffffffffffffffffffffffffff1614611632576040517f08c379a00000000000000000000000000000000000000000000000000000000081526004018080602001828103825260208152602001807f4f776e61626c653a2063616c6c6572206973206e6f7420746865206f776e657281525060200191505060405180910390fd5b8181101561168b576040517f08c379a00000000000000000000000000000000000000000000000000000000081526004018080602001828103825260358152602001806138866035913960400191505060405180910390fd5b81603f81905550806040819055507f2862378fc1ea993e6eeba10de1be8767247c38ce6f06e5a19cd380abbcd4f4958282604051808381526020018281526020019250505060405180910390a15050565b60008060008090505b6035805490508110156118c4576118b56035828154811061170257fe5b9060005260206000200160009054906101000a900473ffffffffffffffffffffffffffffffffffffffff1673ffffffffffffffffffffffffffffffffffffffff1663c5a46ee66035848154811061175557fe5b9060005260206000200160009054906101000a900473ffffffffffffffffffffffffffffffffffffffff1673ffffffffffffffffffffffffffffffffffffffff166370a08231306040518263ffffffff1660e01b8152600401808273ffffffffffffffffffffffffffffffffffffffff1673ffffffffffffffffffffffffffffffffffffffff16815260200191505060206040518083038186803b1580156117fc57600080fd5b505afa158015611810573d6000803e3d6000fd5b505050506040513d602081101561182657600080fd5b81019080805190602001909291905050506040518263ffffffff1660e01b81526004018082815260200191505060206040518083038186803b15801561186b57600080fd5b505afa15801561187f573d6000803e3d6000fd5b505050506040513d602081101561189557600080fd5b81019080805190602001909291905050508361326090919063ffffffff16565b915080806001019150506116e5565b508091505090565b600060019054906101000a900460ff16806118eb57506118ea6132e8565b5b8061190257506000809054906101000a900460ff16155b611957576040517f08c379a000000000000000000000000000000000000000000000000000000000815260040180806020018281038252602e815260200180613938602e913960400191505060405180910390fd5b60008060019054906101000a900460ff1615905080156119a7576001600060016101000a81548160ff02191690831515021790555060016000806101000a81548160ff0219169083151502179055505b6119af6132ff565b82603660006101000a81548173ffffffffffffffffffffffffffffffffffffffff021916908373ffffffffffffffffffffffffffffffffffffffff1602179055508273ffffffffffffffffffffffffffffffffffffffff16636b2fa3746040518163ffffffff1660e01b815260040160206040518083038186803b158015611a3657600080fd5b505afa158015611a4a573d6000803e3d6000fd5b505050506040513d6020811015611a6057600080fd5b8101908080519060200190929190505050603760006101000a81548173ffffffffffffffffffffffffffffffffffffffff021916908373ffffffffffffffffffffffffffffffffffffffff160217905550603760009054906101000a900473ffffffffffffffffffffffffffffffffffffffff1673ffffffffffffffffffffffffffffffffffffffff1663095ea7b3847fffffffffffffffffffffffffffffffffffffffffffffffffffffffffffffffff6040518363ffffffff1660e01b8152600401808373ffffffffffffffffffffffffffffffffffffffff1673ffffffffffffffffffffffffffffffffffffffff16815260200182815260200192505050602060405180830381600087803b158015611b7a57600080fd5b505af1158015611b8e573d6000803e3d6000fd5b505050506040513d6020811015611ba457600080fd5b81019080805190602001909291905050505081603860006101000a81548173ffffffffffffffffffffffffffffffffffffffff021916908373ffffffffffffffffffffffffffffffffffffffff1602179055508015611c185760008060016101000a81548160ff0219169083151502179055505b505050565b60006039548210158015611c335750603a548211155b9050919050565b603760009054906101000a900473ffffffffffffffffffffffffffffffffffffffff1681565b611c68613258565b73ffffffffffffffffffffffffffffffffffffffff16603360009054906101000a900473ffffffffffffffffffffffffffffffffffffffff1673ffffffffffffffffffffffffffffffffffffffff1614611d2a576040517f08c379a00000000000000000000000000000000000000000000000000000000081526004018080602001828103825260208152602001807f4f776e61626c653a2063616c6c6572206973206e6f7420746865206f776e657281525060200191505060405180910390fd5b600073ffffffffffffffffffffffffffffffffffffffff16603360009054906101000a900473ffffffffffffffffffffffffffffffffffffffff1673ffffffffffffffffffffffffffffffffffffffff167f8be0079c531659141344cd1fd0a4f28419497f9722a3daafe3b4186f6b6457e060405160405180910390a36000603360006101000a81548173ffffffffffffffffffffffffffffffffffffffff021916908373ffffffffffffffffffffffffffffffffffffffff160217905550565b611df3613258565b73ffffffffffffffffffffffffffffffffffffffff16603360009054906101000a900473ffffffffffffffffffffffffffffffffffffffff1673ffffffffffffffffffffffffffffffffffffffff1614611eb5576040517f08c379a00000000000000000000000000000000000000000000000000000000081526004018080602001828103825260208152602001807f4f776e61626c653a2063616c6c6572206973206e6f7420746865206f776e657281525060200191505060405180910390fd5b81811015611f0e576040517f08c379a00000000000000000000000000000000000000000000000000000000081526004018080602001828103825260358152602001806138e26035913960400191505060405180910390fd5b81603d8190555080603e819055507fbcdd91bffcc84b0603f70340297adc4d3ddeaec3f2e5da28f17a2f74c62e934a8282604051808381526020018281526020019250505060405180910390a15050565b603c5481565b611f6d613258565b73ffffffffffffffffffffffffffffffffffffffff16603360009054906101000a900473ffffffffffffffffffffffffffffffffffffffff1673ffffffffffffffffffffffffffffffffffffffff161461202f576040517f08c379a00000000000000000000000000000000000000000000000000000000081526004018080602001828103825260208152602001807f4f776e61626c653a2063616c6c6572206973206e6f7420746865206f776e657281525060200191505060405180910390fd5b81811015612088576040517f08c379a000000000000000000000000000000000000000000000000000000000815260040180806020018281038252602f815260200180613857602f913960400191505060405180910390fd5b8160398190555080603a819055507f1cccf6af6bc641894c4e6802140356ca72532826c45c4f6ef4fd194a6fba85548282604051808381526020018281526020019250505060405180910390a15050565b6120e1613258565b73ffffffffffffffffffffffffffffffffffffffff16603360009054906101000a900473ffffffffffffffffffffffffffffffffffffffff1673ffffffffffffffffffffffffffffffffffffffff16146121a3576040517f08c379a00000000000000000000000000000000000000000000000000000000081526004018080602001828103825260208152602001807f4f776e61626c653a2063616c6c6572206973206e6f7420746865206f776e657281525060200191505060405180910390fd5b80603b819055507f52adf3a354ff2b9d94a1566a163a02d578a5eff4118a308db15c7bd3a67305b5816040518082815260200191505060405180910390a150565b60006121fb603c54836134a790919063ffffffff16565b6122366301da9c006122288661221a898b6134a790919063ffffffff16565b6134a790919063ffffffff16565b61352d90919063ffffffff16565b10159050949350505050565b6000603360009054906101000a900473ffffffffffffffffffffffffffffffffffffffff16905090565b6000603d5482101580156122825750603e548211155b9050919050565b603f5481565b603860009054906101000a900473ffffffffffffffffffffffffffffffffffffffff1681565b60346020528060005260406000206000915054906101000a900460ff1681565b60405481565b603660009054906101000a900473ffffffffffffffffffffffffffffffffffffffff1673ffffffffffffffffffffffffffffffffffffffff163373ffffffffffffffffffffffffffffffffffffffff161461239e576040517f08c379a00000000000000000000000000000000000000000000000000000000081526004018080602001828103825260208152602001807f547275654c656e6465723a2053656e646572206973206e6f74206120706f6f6c81525060200191505060405180910390fd5b60008090505b6035805490508110156125ca57603581815481106123be57fe5b9060005260206000200160009054906101000a900473ffffffffffffffffffffffffffffffffffffffff1673ffffffffffffffffffffffffffffffffffffffff1663a9059cbb856125188561250a6035878154811061241957fe5b9060005260206000200160009054906101000a900473ffffffffffffffffffffffffffffffffffffffff1673ffffffffffffffffffffffffffffffffffffffff166370a08231306040518263ffffffff1660e01b8152600401808273ffffffffffffffffffffffffffffffffffffffff1673ffffffffffffffffffffffffffffffffffffffff16815260200191505060206040518083038186803b1580156124c057600080fd5b505afa1580156124d4573d6000803e3d6000fd5b505050506040513d60208110156124ea57600080fd5b8101908080519060200190929190505050896134a790919063ffffffff16565b61352d90919063ffffffff16565b6040518363ffffffff1660e01b8152600401808373ffffffffffffffffffffffffffffffffffffffff1673ffffffffffffffffffffffffffffffffffffffff16815260200182815260200192505050602060405180830381600087803b15801561258157600080fd5b505af1158015612595573d6000803e3d6000fd5b505050506040513d60208110156125ab57600080fd5b81019080805190602001909291905050505080806001019150506123a4565b50505050565b6060603580548060200260200160405190810160405280929190818152602001828054801561265457602002820191906000526020600020905b8160009054906101000a900473ffffffffffffffffffffffffffffffffffffffff1673ffffffffffffffffffffffffffffffffffffffff168152602001906001019080831161260a575b5050505050905090565b612666613258565b73ffffffffffffffffffffffffffffffffffffffff16603360009054906101000a900473ffffffffffffffffffffffffffffffffffffffff1673ffffffffffffffffffffffffffffffffffffffff1614612728576040517f08c379a00000000000000000000000000000000000000000000000000000000081526004018080602001828103825260208152602001807f4f776e61626c653a2063616c6c6572206973206e6f7420746865206f776e657281525060200191505060405180910390fd5b806041819055507f80de61ff4315232cb8f8914c01ec01d87aaf9714a379151c9cf5ccaba20c7390816040518082815260200191505060405180910390a150565b612771613258565b73ffffffffffffffffffffffffffffffffffffffff16603360009054906101000a900473ffffffffffffffffffffffffffffffffffffffff1673ffffffffffffffffffffffffffffffffffffffff1614612833576040517f08c379a00000000000000000000000000000000000000000000000000000000081526004018080602001828103825260208152602001807f4f776e61626c653a2063616c6c6572206973206e6f7420746865206f776e657281525060200191505060405180910390fd5b600073ffffffffffffffffffffffffffffffffffffffff168173ffffffffffffffffffffffffffffffffffffffff1614156128b9576040517f08c379a000000000000000000000000000000000000000000000000000000000815260040180806020018281038252602681526020018061380b6026913960400191505060405180910390fd5b8073ffffffffffffffffffffffffffffffffffffffff16603360009054906101000a900473ffffffffffffffffffffffffffffffffffffffff1673ffffffffffffffffffffffffffffffffffffffff167f8be0079c531659141344cd1fd0a4f28419497f9722a3daafe3b4186f6b6457e060405160405180910390a380603360006101000a81548173ffffffffffffffffffffffffffffffffffffffff021916908373ffffffffffffffffffffffffffffffffffffffff16021790555050565b603a5481565b6000426129976041548461326090919063ffffffff16565b11159050919050565b6129a8613258565b73ffffffffffffffffffffffffffffffffffffffff16603360009054906101000a900473ffffffffffffffffffffffffffffffffffffffff1673ffffffffffffffffffffffffffffffffffffffff1614612a6a576040517f08c379a00000000000000000000000000000000000000000000000000000000081526004018080602001828103825260208152602001807f4f776e61626c653a2063616c6c6572206973206e6f7420746865206f776e657281525060200191505060405180910390fd5b8073ffffffffffffffffffffffffffffffffffffffff16636e31d80a6040518163ffffffff1660e01b815260040160206040518083038186803b158015612ab057600080fd5b505afa158015612ac4573d6000803e3d6000fd5b505050506040513d6020811015612ada57600080fd5b8101908080519060200190929190505050612b40576040517f08c379a00000000000000000000000000000000000000000000000000000000081526004018080602001828103825260348152602001806139956034913960400191505060405180910390fd5b60036004811115612b4d57fe5b8173ffffffffffffffffffffffffffffffffffffffff1663200d2ed26040518163ffffffff1660e01b815260040160206040518083038186803b158015612b9357600080fd5b505afa158015612ba7573d6000803e3d6000fd5b505050506040513d6020811015612bbd57600080fd5b81019080805190602001909291905050506004811115612bd957fe5b1480612c7a5750600480811115612bec57fe5b8173ffffffffffffffffffffffffffffffffffffffff1663200d2ed26040518163ffffffff1660e01b815260040160206040518083038186803b158015612c3257600080fd5b505afa158015612c46573d6000803e3d6000fd5b505050506040513d6020811015612c5c57600080fd5b81019080805190602001909291905050506004811115612c7857fe5b145b612ccf576040517f08c379a00000000000000000000000000000000000000000000000000000000081526004018080602001828103825260278152602001806138bb6027913960400191505060405180910390fd5b6000603760009054906101000a900473ffffffffffffffffffffffffffffffffffffffff1673ffffffffffffffffffffffffffffffffffffffff166370a08231306040518263ffffffff1660e01b8152600401808273ffffffffffffffffffffffffffffffffffffffff1673ffffffffffffffffffffffffffffffffffffffff16815260200191505060206040518083038186803b158015612d7057600080fd5b505afa158015612d84573d6000803e3d6000fd5b505050506040513d6020811015612d9a57600080fd5b810190808051906020019092919050505090508173ffffffffffffffffffffffffffffffffffffffff1663db006a758373ffffffffffffffffffffffffffffffffffffffff166370a08231306040518263ffffffff1660e01b8152600401808273ffffffffffffffffffffffffffffffffffffffff1673ffffffffffffffffffffffffffffffffffffffff16815260200191505060206040518083038186803b158015612e4657600080fd5b505afa158015612e5a573d6000803e3d6000fd5b505050506040513d6020811015612e7057600080fd5b81019080805190602001909291905050506040518263ffffffff1660e01b815260040180828152602001915050600060405180830381600087803b158015612eb757600080fd5b505af1158015612ecb573d6000803e3d6000fd5b505050506000603760009054906101000a900473ffffffffffffffffffffffffffffffffffffffff1673ffffffffffffffffffffffffffffffffffffffff166370a08231306040518263ffffffff1660e01b8152600401808273ffffffffffffffffffffffffffffffffffffffff1673ffffffffffffffffffffffffffffffffffffffff16815260200191505060206040518083038186803b158015612f7057600080fd5b505afa158015612f84573d6000803e3d6000fd5b505050506040513d6020811015612f9a57600080fd5b810190808051906020019092919050505090506000612fc2838361357790919063ffffffff16565b9050603660009054906101000a900473ffffffffffffffffffffffffffffffffffffffff1673ffffffffffffffffffffffffffffffffffffffff1663371fd8e6826040518263ffffffff1660e01b815260040180828152602001915050600060405180830381600087803b15801561303957600080fd5b505af115801561304d573d6000803e3d6000fd5b5050505060008090505b6035805490508110156131b6578473ffffffffffffffffffffffffffffffffffffffff166035828154811061308857fe5b9060005260206000200160009054906101000a900473ffffffffffffffffffffffffffffffffffffffff1673ffffffffffffffffffffffffffffffffffffffff1614156131a9576035600160358054905003815481106130e457fe5b9060005260206000200160009054906101000a900473ffffffffffffffffffffffffffffffffffffffff166035828154811061311c57fe5b9060005260206000200160006101000a81548173ffffffffffffffffffffffffffffffffffffffff021916908373ffffffffffffffffffffffffffffffffffffffff160217905550603580548061316f57fe5b6001900381819060005260206000200160006101000a81549073ffffffffffffffffffffffffffffffffffffffff021916905590556131b6565b8080600101915050613057565b508373ffffffffffffffffffffffffffffffffffffffff167fcab347be18c8c37ef504626a027a12ea6725f491b5f5b154778d8d0c54f7841e826040518082815260200191505060405180910390a250505050565b60006132396402540be40061322b612710856134a790919063ffffffff16565b6134a790919063ffffffff16565b61324e603b54856134a790919063ffffffff16565b1115905092915050565b600033905090565b6000808284019050838110156132de576040517f08c379a000000000000000000000000000000000000000000000000000000000815260040180806020018281038252601b8152602001807f536166654d6174683a206164646974696f6e206f766572666c6f77000000000081525060200191505060405180910390fd5b8091505092915050565b6000803090506000813b9050600081149250505090565b600060019054906101000a900460ff168061331e575061331d6132e8565b5b8061333557506000809054906101000a900460ff16155b61338a576040517f08c379a000000000000000000000000000000000000000000000000000000000815260040180806020018281038252602e815260200180613938602e913960400191505060405180910390fd5b60008060019054906101000a900460ff1615905080156133da576001600060016101000a81548160ff02191690831515021790555060016000806101000a81548160ff0219169083151502179055505b60006133e4613258565b905080603360006101000a81548173ffffffffffffffffffffffffffffffffffffffff021916908373ffffffffffffffffffffffffffffffffffffffff1602179055508073ffffffffffffffffffffffffffffffffffffffff16600073ffffffffffffffffffffffffffffffffffffffff167f8be0079c531659141344cd1fd0a4f28419497f9722a3daafe3b4186f6b6457e060405160405180910390a35080156134a45760008060016101000a81548160ff0219169083151502179055505b50565b6000808314156134ba5760009050613527565b60008284029050828482816134cb57fe5b0414613522576040517f08c379a00000000000000000000000000000000000000000000000000000000081526004018080602001828103825260218152602001806139176021913960400191505060405180910390fd5b809150505b92915050565b600061356f83836040518060400160405280601a81526020017f536166654d6174683a206469766973696f6e206279207a65726f0000000000008152506135c1565b905092915050565b60006135b983836040518060400160405280601e81526020017f536166654d6174683a207375627472616374696f6e206f766572666c6f770000815250613687565b905092915050565b6000808311829061366d576040517f08c379a00000000000000000000000000000000000000000000000000000000081526004018080602001828103825283818151815260200191508051906020019080838360005b83811015613632578082015181840152602081019050613617565b50505050905090810190601f16801561365f5780820380516001836020036101000a031916815260200191505b509250505060405180910390fd5b50600083858161367957fe5b049050809150509392505050565b6000838311158290613734576040517f08c379a00000000000000000000000000000000000000000000000000000000081526004018080602001828103825283818151815260200191508051906020019080838360005b838110156136f95780820151818401526020810190506136de565b50505050905090810190601f1680156137265780820380516001836020036101000a031916815260200191505b509250505060405180910390fd5b506000838503905080915050939250505056fe547275654c656e6465723a204f6e6c79204c6f616e546f6b656e732063616e2062652066756e646564547275654c656e6465723a2053656e646572206973206e6f7420616c6c6f77656420746f20626f72726f77547275654c656e6465723a204c6f616e207465726d206973206f7574206f6620626f756e6473547275654c656e6465723a20566f74696e672074696d652069732062656c6f77206d696e696d756d547275654c656e6465723a204c6f616e207269736b20697320746f6f20686967684f776e61626c653a206e6577206f776e657220697320746865207a65726f2061646472657373547275654c656e6465723a204c6f616e2073697a65206973206f7574206f6620626f756e6473547275654c656e6465723a204d6178696d616c2041505920697320736d616c6c6572207468616e206d696e696d616c547275654c656e6465723a204d6178696d616c206c6f616e207465726d20697320736d616c6c6572207468616e206d696e696d616c547275654c656e6465723a204c6f616e546f6b656e206973206e6f7420636c6f73656420796574547275654c656e6465723a204d6178696d616c206c6f616e2073697a6520697320736d616c6c6572207468616e206d696e696d616c536166654d6174683a206d756c7469706c69636174696f6e206f766572666c6f77436f6e747261637420696e7374616e63652068617320616c7265616479206265656e20696e697469616c697a6564547275654c656e6465723a204e6f7420656e6f75676820766f74657320676976656e20666f7220746865206c6f616e547275654c656e6465723a204f6e6c79204c6f616e546f6b656e732063616e206265207573656420746f207265636c61696d6564a264697066735822122008ecc2fcb398040d120d444b60e64cbd3e93496abe84b1c68ee85337e64713d064736f6c634300060a0033",
  "linkReferences": {},
  "deployedLinkReferences": {}
}