{
  "_format": "hh-sol-artifact-1",
  "contractName": "MockHook",
  "sourceName": "contracts/true-currencies/mocks/MockHook.sol",
  "abi": [
    {
      "inputs": [],
      "name": "hook",
      "outputs": [],
      "stateMutability": "nonpayable",
      "type": "function"
    }
  ],
  "bytecode": "0x608060405234801561001057600080fd5b5060b48061001f6000396000f3fe6080604052348015600f57600080fd5b506004361060285760003560e01c80637f5a7c7b14602d575b600080fd5b60336035565b005b60008090505b6064811015607b5760006001820190806001815401808255809150506001900390600052602060002001600090919091909150558080600101915050603b565b5056fea26469706673582212204db659dffb154fc7059df94709c8e8f93aea1f2cb9511e78db29afa9b823e32e64736f6c634300060a0033",
  "linkReferences": {},
  "deployedLinkReferences": {}
}