{
  "_format": "hh-sol-artifact-1",
  "contractName": "MockTrueLender",
  "sourceName": "contracts/truefi/mock/MockTrueLender.sol",
  "abi": [
    {
      "anonymous": false,
      "inputs": [
        {
          "indexed": true,
          "internalType": "address",
          "name": "who",
          "type": "address"
        },
        {
          "indexed": false,
          "internalType": "bool",
          "name": "status",
          "type": "bool"
        }
      ],
      "name": "Allowed",
      "type": "event"
    },
    {
      "anonymous": false,
      "inputs": [
        {
          "indexed": false,
          "internalType": "uint256",
          "name": "minApy",
          "type": "uint256"
        },
        {
          "indexed": false,
          "internalType": "uint256",
          "name": "maxApy",
          "type": "uint256"
        }
      ],
      "name": "ApyLimitsChanged",
      "type": "event"
    },
    {
      "anonymous": false,
      "inputs": [
        {
          "indexed": true,
          "internalType": "address",
          "name": "loanToken",
          "type": "address"
        },
        {
          "indexed": false,
          "internalType": "uint256",
          "name": "amount",
          "type": "uint256"
        }
      ],
      "name": "Funded",
      "type": "event"
    },
    {
      "anonymous": false,
      "inputs": [
        {
          "indexed": true,
          "internalType": "address",
          "name": "previousOwner",
          "type": "address"
        },
        {
          "indexed": true,
          "internalType": "address",
          "name": "newOwner",
          "type": "address"
        }
      ],
      "name": "OwnershipTransferred",
      "type": "event"
    },
    {
      "anonymous": false,
      "inputs": [
        {
          "indexed": false,
          "internalType": "uint256",
          "name": "participationFactor",
          "type": "uint256"
        }
      ],
      "name": "ParticipationFactorChanged",
      "type": "event"
    },
    {
      "anonymous": false,
      "inputs": [
        {
          "indexed": true,
          "internalType": "address",
          "name": "loanToken",
          "type": "address"
        },
        {
          "indexed": false,
          "internalType": "uint256",
          "name": "amount",
          "type": "uint256"
        }
      ],
      "name": "Reclaimed",
      "type": "event"
    },
    {
      "anonymous": false,
      "inputs": [
        {
          "indexed": false,
          "internalType": "uint256",
          "name": "riskAversion",
          "type": "uint256"
        }
      ],
      "name": "RiskAversionChanged",
      "type": "event"
    },
    {
      "anonymous": false,
      "inputs": [
        {
          "indexed": false,
          "internalType": "uint256",
          "name": "minSize",
          "type": "uint256"
        },
        {
          "indexed": false,
          "internalType": "uint256",
          "name": "maxSize",
          "type": "uint256"
        }
      ],
      "name": "SizeLimitsChanged",
      "type": "event"
    },
    {
      "anonymous": false,
      "inputs": [
        {
          "indexed": false,
          "internalType": "uint256",
          "name": "minTerm",
          "type": "uint256"
        },
        {
          "indexed": false,
          "internalType": "uint256",
          "name": "maxTerm",
          "type": "uint256"
        }
      ],
      "name": "TermLimitsChanged",
      "type": "event"
    },
    {
      "anonymous": false,
      "inputs": [
        {
          "indexed": false,
          "internalType": "uint256",
          "name": "votingPeriod",
          "type": "uint256"
        }
      ],
      "name": "VotingPeriodChanged",
      "type": "event"
    },
    {
      "inputs": [
        {
          "internalType": "address",
          "name": "who",
          "type": "address"
        },
        {
          "internalType": "bool",
          "name": "status",
          "type": "bool"
        }
      ],
      "name": "allow",
      "outputs": [],
      "stateMutability": "nonpayable",
      "type": "function"
    },
    {
      "inputs": [
        {
          "internalType": "address",
          "name": "",
          "type": "address"
        }
      ],
      "name": "allowedBorrowers",
      "outputs": [
        {
          "internalType": "bool",
          "name": "",
          "type": "bool"
        }
      ],
      "stateMutability": "view",
      "type": "function"
    },
    {
      "inputs": [],
      "name": "currencyToken",
      "outputs": [
        {
          "internalType": "contract IERC20",
          "name": "",
          "type": "address"
        }
      ],
      "stateMutability": "view",
      "type": "function"
    },
    {
      "inputs": [
        {
          "internalType": "address",
          "name": "recipient",
          "type": "address"
        },
        {
          "internalType": "uint256",
          "name": "numerator",
          "type": "uint256"
        },
        {
          "internalType": "uint256",
          "name": "denominator",
          "type": "uint256"
        }
      ],
      "name": "distribute",
      "outputs": [],
      "stateMutability": "nonpayable",
      "type": "function"
    },
    {
      "inputs": [
        {
          "internalType": "contract ILoanToken",
          "name": "loanToken",
          "type": "address"
        }
      ],
      "name": "fund",
      "outputs": [],
      "stateMutability": "nonpayable",
      "type": "function"
    },
    {
      "inputs": [
        {
          "internalType": "contract ITrueFiPool",
          "name": "_pool",
          "type": "address"
        },
        {
          "internalType": "contract ITrueRatingAgency",
          "name": "_ratingAgency",
          "type": "address"
        }
      ],
      "name": "initialize",
      "outputs": [],
      "stateMutability": "nonpayable",
      "type": "function"
    },
    {
      "inputs": [
        {
          "internalType": "uint256",
          "name": "apy",
          "type": "uint256"
        }
      ],
      "name": "loanIsAttractiveEnough",
      "outputs": [
        {
          "internalType": "bool",
          "name": "",
          "type": "bool"
        }
      ],
      "stateMutability": "view",
      "type": "function"
    },
    {
      "inputs": [
        {
          "internalType": "uint256",
          "name": "apy",
          "type": "uint256"
        },
        {
          "internalType": "uint256",
          "name": "term",
          "type": "uint256"
        },
        {
          "internalType": "uint256",
          "name": "yesVotes",
          "type": "uint256"
        },
        {
          "internalType": "uint256",
          "name": "noVotes",
          "type": "uint256"
        }
      ],
      "name": "loanIsCredible",
      "outputs": [
        {
          "internalType": "bool",
          "name": "",
          "type": "bool"
        }
      ],
      "stateMutability": "view",
      "type": "function"
    },
    {
      "inputs": [
        {
          "internalType": "uint256",
          "name": "amount",
          "type": "uint256"
        }
      ],
      "name": "loanSizeWithinBounds",
      "outputs": [
        {
          "internalType": "bool",
          "name": "",
          "type": "bool"
        }
      ],
      "stateMutability": "view",
      "type": "function"
    },
    {
      "inputs": [
        {
          "internalType": "uint256",
          "name": "term",
          "type": "uint256"
        }
      ],
      "name": "loanTermWithinBounds",
      "outputs": [
        {
          "internalType": "bool",
          "name": "",
          "type": "bool"
        }
      ],
      "stateMutability": "view",
      "type": "function"
    },
    {
      "inputs": [],
      "name": "loans",
      "outputs": [
        {
          "internalType": "contract ILoanToken[]",
          "name": "result",
          "type": "address[]"
        }
      ],
      "stateMutability": "view",
      "type": "function"
    },
    {
      "inputs": [],
      "name": "maxApy",
      "outputs": [
        {
          "internalType": "uint256",
          "name": "",
          "type": "uint256"
        }
      ],
      "stateMutability": "view",
      "type": "function"
    },
    {
      "inputs": [],
      "name": "maxSize",
      "outputs": [
        {
          "internalType": "uint256",
          "name": "",
          "type": "uint256"
        }
      ],
      "stateMutability": "view",
      "type": "function"
    },
    {
      "inputs": [],
      "name": "maxTerm",
      "outputs": [
        {
          "internalType": "uint256",
          "name": "",
          "type": "uint256"
        }
      ],
      "stateMutability": "view",
      "type": "function"
    },
    {
      "inputs": [],
      "name": "minApy",
      "outputs": [
        {
          "internalType": "uint256",
          "name": "",
          "type": "uint256"
        }
      ],
      "stateMutability": "view",
      "type": "function"
    },
    {
      "inputs": [],
      "name": "minSize",
      "outputs": [
        {
          "internalType": "uint256",
          "name": "",
          "type": "uint256"
        }
      ],
      "stateMutability": "view",
      "type": "function"
    },
    {
      "inputs": [],
      "name": "minTerm",
      "outputs": [
        {
          "internalType": "uint256",
          "name": "",
          "type": "uint256"
        }
      ],
      "stateMutability": "view",
      "type": "function"
    },
    {
      "inputs": [],
      "name": "owner",
      "outputs": [
        {
          "internalType": "address",
          "name": "",
          "type": "address"
        }
      ],
      "stateMutability": "view",
      "type": "function"
    },
    {
      "inputs": [],
      "name": "participationFactor",
      "outputs": [
        {
          "internalType": "uint256",
          "name": "",
          "type": "uint256"
        }
      ],
      "stateMutability": "view",
      "type": "function"
    },
    {
      "inputs": [],
      "name": "pool",
      "outputs": [
        {
          "internalType": "contract ITrueFiPool",
          "name": "",
          "type": "address"
        }
      ],
      "stateMutability": "view",
      "type": "function"
    },
    {
      "inputs": [],
      "name": "ratingAgency",
      "outputs": [
        {
          "internalType": "contract ITrueRatingAgency",
          "name": "",
          "type": "address"
        }
      ],
      "stateMutability": "view",
      "type": "function"
    },
    {
      "inputs": [
        {
          "internalType": "contract ILoanToken",
          "name": "loanToken",
          "type": "address"
        }
      ],
      "name": "reclaim",
      "outputs": [],
      "stateMutability": "nonpayable",
      "type": "function"
    },
    {
      "inputs": [],
      "name": "renounceOwnership",
      "outputs": [],
      "stateMutability": "nonpayable",
      "type": "function"
    },
    {
      "inputs": [],
      "name": "riskAversion",
      "outputs": [
        {
          "internalType": "uint256",
          "name": "",
          "type": "uint256"
        }
      ],
      "stateMutability": "view",
      "type": "function"
    },
    {
      "inputs": [
        {
          "internalType": "uint256",
          "name": "newMinApy",
          "type": "uint256"
        },
        {
          "internalType": "uint256",
          "name": "newMaxApy",
          "type": "uint256"
        }
      ],
      "name": "setApyLimits",
      "outputs": [],
      "stateMutability": "nonpayable",
      "type": "function"
    },
    {
      "inputs": [
        {
          "internalType": "uint256",
          "name": "newParticipationFactor",
          "type": "uint256"
        }
      ],
      "name": "setParticipationFactor",
      "outputs": [],
      "stateMutability": "nonpayable",
      "type": "function"
    },
    {
      "inputs": [
        {
          "internalType": "contract ITrueFiPool",
          "name": "newPool",
          "type": "address"
        }
      ],
      "name": "setPool",
      "outputs": [],
      "stateMutability": "nonpayable",
      "type": "function"
    },
    {
      "inputs": [
        {
          "internalType": "uint256",
          "name": "newRiskAversion",
          "type": "uint256"
        }
      ],
      "name": "setRiskAversion",
      "outputs": [],
      "stateMutability": "nonpayable",
      "type": "function"
    },
    {
      "inputs": [
        {
          "internalType": "uint256",
          "name": "min",
          "type": "uint256"
        },
        {
          "internalType": "uint256",
          "name": "max",
          "type": "uint256"
        }
      ],
      "name": "setSizeLimits",
      "outputs": [],
      "stateMutability": "nonpayable",
      "type": "function"
    },
    {
      "inputs": [
        {
          "internalType": "uint256",
          "name": "min",
          "type": "uint256"
        },
        {
          "internalType": "uint256",
          "name": "max",
          "type": "uint256"
        }
      ],
      "name": "setTermLimits",
      "outputs": [],
      "stateMutability": "nonpayable",
      "type": "function"
    },
    {
      "inputs": [
        {
          "internalType": "uint256",
          "name": "newVotingPeriod",
          "type": "uint256"
        }
      ],
      "name": "setVotingPeriod",
      "outputs": [],
      "stateMutability": "nonpayable",
      "type": "function"
    },
    {
      "inputs": [
        {
          "internalType": "address",
          "name": "newOwner",
          "type": "address"
        }
      ],
      "name": "transferOwnership",
      "outputs": [],
      "stateMutability": "nonpayable",
      "type": "function"
    },
    {
      "inputs": [],
      "name": "value",
      "outputs": [
        {
          "internalType": "uint256",
          "name": "",
          "type": "uint256"
        }
      ],
      "stateMutability": "view",
      "type": "function"
    },
    {
      "inputs": [
        {
          "internalType": "uint256",
          "name": "amount",
          "type": "uint256"
        },
        {
          "internalType": "uint256",
          "name": "yesVotes",
          "type": "uint256"
        }
      ],
      "name": "votesThresholdReached",
      "outputs": [
        {
          "internalType": "bool",
          "name": "",
          "type": "bool"
        }
      ],
      "stateMutability": "view",
      "type": "function"
    },
    {
      "inputs": [
        {
          "internalType": "uint256",
          "name": "start",
          "type": "uint256"
        }
      ],
      "name": "votingLastedLongEnough",
      "outputs": [
        {
          "internalType": "bool",
          "name": "",
          "type": "bool"
        }
      ],
      "stateMutability": "view",
      "type": "function"
    },
    {
      "inputs": [],
      "name": "votingPeriod",
      "outputs": [
        {
          "internalType": "uint256",
          "name": "",
          "type": "uint256"
        }
      ],
      "stateMutability": "view",
      "type": "function"
    }
  ],
  "bytecode": "0x60806040526103e8603955610bb8603a55612710603b55613a98603c5569d3c21bcecceda1000000603d556a084595161401484a000000603e5562ed4e00603f5563128a180060405562093a8060415534801561005b57600080fd5b50613a918061006b6000396000f3fe608060405234801561001057600080fd5b506004361061021c5760003560e01c80637e64ede011610125578063cd86db34116100ad578063f2fde38b1161007c578063f2fde38b14610918578063f3482ee61461095c578063f3ba5ff51461097a578063fc772c8b146109c0578063fe0ee11514610a045761021c565b8063cd86db3414610815578063e2c92a5214610833578063e9946b201461088b578063ea0217cf146108ea5761021c565b80638da5cb5b116100f45780638da5cb5b146106c157806392a903871461070b5780639c201cc314610751578063a643032c1461076f578063bd305625146107b95761021c565b80637e64ede0146105d957806380e81732146105f75780638a8ef5a81461062f5780638c31a96e1461065d5761021c565b80633579ad1a116101a8578063485cc95511610177578063485cc955146104a3578063624a6cff146105075780636b2fa3741461054d578063715018a6146105975780637cb0c8f1146105a15761021c565b80633579ad1a146103c35780633c5abb66146104095780633fa4f245146104415780634437152a1461045f5761021c565b806316f0115b116101ef57806316f0115b146102cb578063201ff2c414610315578063230244081461034357806324524a96146103875780632565b159146103a55761021c565b806302a251a314610221578063110496e51461023f578063114b0d951461028f57806311bd4507146102ad575b600080fd5b610229610a54565b6040518082815260200191505060405180910390f35b61028d6004803603604081101561025557600080fd5b81019080803573ffffffffffffffffffffffffffffffffffffffff169060200190929190803515159060200190929190505050610a5a565b005b610297610bd1565b6040518082815260200191505060405180910390f35b6102b5610bd7565b6040518082815260200191505060405180910390f35b6102d3610bdd565b604051808273ffffffffffffffffffffffffffffffffffffffff1673ffffffffffffffffffffffffffffffffffffffff16815260200191505060405180910390f35b6103416004803603602081101561032b57600080fd5b8101908080359060200190929190505050610c03565b005b6103856004803603602081101561035957600080fd5b81019080803573ffffffffffffffffffffffffffffffffffffffff169060200190929190505050610d0e565b005b61038f61158e565b6040518082815260200191505060405180910390f35b6103ad611594565b6040518082815260200191505060405180910390f35b6103ef600480360360208110156103d957600080fd5b810190808035906020019092919050505061159a565b604051808215151515815260200191505060405180910390f35b61043f6004803603604081101561041f57600080fd5b8101908080359060200190929190803590602001909291905050506115b7565b005b61044961172b565b6040518082815260200191505060405180910390f35b6104a16004803603602081101561047557600080fd5b81019080803573ffffffffffffffffffffffffffffffffffffffff16906020019092919050505061191b565b005b610505600480360360408110156104b957600080fd5b81019080803573ffffffffffffffffffffffffffffffffffffffff169060200190929190803573ffffffffffffffffffffffffffffffffffffffff16906020019092919050505061195f565b005b6105336004803603602081101561051d57600080fd5b8101908080359060200190929190505050611cb0565b604051808215151515815260200191505060405180910390f35b610555611ccd565b604051808273ffffffffffffffffffffffffffffffffffffffff1673ffffffffffffffffffffffffffffffffffffffff16815260200191505060405180910390f35b61059f611cf3565b005b6105d7600480360360408110156105b757600080fd5b810190808035906020019092919080359060200190929190505050611e7e565b005b6105e1611ff2565b6040518082815260200191505060405180910390f35b61062d6004803603604081101561060d57600080fd5b810190808035906020019092919080359060200190929190505050611ff8565b005b61065b6004803603602081101561064557600080fd5b810190808035906020019092919050505061216c565b005b6106a76004803603608081101561067357600080fd5b8101908080359060200190929190803590602001909291908035906020019092919080359060200190929190505050612277565b604051808215151515815260200191505060405180910390f35b6106c96122d5565b604051808273ffffffffffffffffffffffffffffffffffffffff1673ffffffffffffffffffffffffffffffffffffffff16815260200191505060405180910390f35b6107376004803603602081101561072157600080fd5b81019080803590602001909291905050506122ff565b604051808215151515815260200191505060405180910390f35b61075961231c565b6040518082815260200191505060405180910390f35b610777612322565b604051808273ffffffffffffffffffffffffffffffffffffffff1673ffffffffffffffffffffffffffffffffffffffff16815260200191505060405180910390f35b6107fb600480360360208110156107cf57600080fd5b81019080803573ffffffffffffffffffffffffffffffffffffffff169060200190929190505050612348565b604051808215151515815260200191505060405180910390f35b61081d612368565b6040518082815260200191505060405180910390f35b6108896004803603606081101561084957600080fd5b81019080803573ffffffffffffffffffffffffffffffffffffffff169060200190929190803590602001909291908035906020019092919050505061236e565b005b610893612663565b6040518080602001828103825283818151815260200191508051906020019060200280838360005b838110156108d65780820151818401526020810190506108bb565b505050509050019250505060405180910390f35b6109166004803603602081101561090057600080fd5b81019080803590602001909291905050506126f1565b005b61095a6004803603602081101561092e57600080fd5b81019080803573ffffffffffffffffffffffffffffffffffffffff1690602001909291905050506127fc565b005b610964612a0c565b6040518082815260200191505060405180910390f35b6109a66004803603602081101561099057600080fd5b8101908080359060200190929190505050612a12565b604051808215151515815260200191505060405180910390f35b610a02600480360360208110156109d657600080fd5b81019080803573ffffffffffffffffffffffffffffffffffffffff169060200190929190505050612a33565b005b610a3a60048036036040811015610a1a57600080fd5b81019080803590602001909291908035906020019092919050505061329e565b604051808215151515815260200191505060405180910390f35b60415481565b610a626132eb565b73ffffffffffffffffffffffffffffffffffffffff16603360009054906101000a900473ffffffffffffffffffffffffffffffffffffffff1673ffffffffffffffffffffffffffffffffffffffff1614610b24576040517f08c379a00000000000000000000000000000000000000000000000000000000081526004018080602001828103825260208152602001807f4f776e61626c653a2063616c6c6572206973206e6f7420746865206f776e657281525060200191505060405180910390fd5b80603460008473ffffffffffffffffffffffffffffffffffffffff1673ffffffffffffffffffffffffffffffffffffffff16815260200190815260200160002060006101000a81548160ff0219169083151502179055508173ffffffffffffffffffffffffffffffffffffffff167f64966f3fe2ac8cae5e6f7e4196d1315efafdb78a4377de3887c56fa3b9ac47cb82604051808215151515815260200191505060405180910390a25050565b603d5481565b603b5481565b603660009054906101000a900473ffffffffffffffffffffffffffffffffffffffff1681565b610c0b6132eb565b73ffffffffffffffffffffffffffffffffffffffff16603360009054906101000a900473ffffffffffffffffffffffffffffffffffffffff1673ffffffffffffffffffffffffffffffffffffffff1614610ccd576040517f08c379a00000000000000000000000000000000000000000000000000000000081526004018080602001828103825260208152602001807f4f776e61626c653a2063616c6c6572206973206e6f7420746865206f776e657281525060200191505060405180910390fd5b80603c819055507fe97afab423880da5e4f704430a2f68dc0d99d17df929fc109050ad52eed6b680816040518082815260200191505060405180910390a150565b603460003373ffffffffffffffffffffffffffffffffffffffff1673ffffffffffffffffffffffffffffffffffffffff16815260200190815260200160002060009054906101000a900460ff16610db0576040517f08c379a000000000000000000000000000000000000000000000000000000000815260040180806020018281038252602b815260200180613804602b913960400191505060405180910390fd5b8073ffffffffffffffffffffffffffffffffffffffff16636e31d80a6040518163ffffffff1660e01b815260040160206040518083038186803b158015610df657600080fd5b505afa158015610e0a573d6000803e3d6000fd5b505050506040513d6020811015610e2057600080fd5b8101908080519060200190929190505050610e86576040517f08c379a00000000000000000000000000000000000000000000000000000000081526004018080602001828103825260298152602001806137db6029913960400191505060405180910390fd5b60008060008373ffffffffffffffffffffffffffffffffffffffff1663a5ea11da6040518163ffffffff1660e01b815260040160606040518083038186803b158015610ed157600080fd5b505afa158015610ee5573d6000803e3d6000fd5b505050506040513d6060811015610efb57600080fd5b8101908080519060200190929190805190602001909291908051906020019092919050505092509250925060008473ffffffffffffffffffffffffffffffffffffffff16639632e7206040518163ffffffff1660e01b815260040160206040518083038186803b158015610f6e57600080fd5b505afa158015610f82573d6000803e3d6000fd5b505050506040513d6020811015610f9857600080fd5b810190808051906020019092919050505090506000806000603860009054906101000a900473ffffffffffffffffffffffffffffffffffffffff1673ffffffffffffffffffffffffffffffffffffffff166350bc4a98896040518263ffffffff1660e01b8152600401808273ffffffffffffffffffffffffffffffffffffffff1673ffffffffffffffffffffffffffffffffffffffff16815260200191505060606040518083038186803b15801561104f57600080fd5b505afa158015611063573d6000803e3d6000fd5b505050506040513d606081101561107957600080fd5b810190808051906020019092919080519060200190929190805190602001909291905050509250925092506110ad876122ff565b611102576040517f08c379a00000000000000000000000000000000000000000000000000000000081526004018080602001828103825260268152602001806138c46026913960400191505060405180910390fd5b61110b8561159a565b611160576040517f08c379a000000000000000000000000000000000000000000000000000000000815260040180806020018281038252602681526020018061382f6026913960400191505060405180910390fd5b61116986611cb0565b6111db576040517f08c379a00000000000000000000000000000000000000000000000000000000081526004018080602001828103825260208152602001807f547275654c656e6465723a20415059206973206f7574206f6620626f756e647381525060200191505060405180910390fd5b6111e483612a12565b611239576040517f08c379a00000000000000000000000000000000000000000000000000000000081526004018080602001828103825260288152602001806138556028913960400191505060405180910390fd5b611243878261329e565b611298576040517f08c379a000000000000000000000000000000000000000000000000000000000815260040180806020018281038252602f8152602001806139f9602f913960400191505060405180910390fd5b6112a486868385612277565b6112f9576040517f08c379a000000000000000000000000000000000000000000000000000000000815260040180806020018281038252602181526020018061387d6021913960400191505060405180910390fd5b603660009054906101000a900473ffffffffffffffffffffffffffffffffffffffff1673ffffffffffffffffffffffffffffffffffffffff16630ecbcdab88866040518363ffffffff1660e01b81526004018083815260200182815260200192505050600060405180830381600087803b15801561137657600080fd5b505af115801561138a573d6000803e3d6000fd5b50505050603760009054906101000a900473ffffffffffffffffffffffffffffffffffffffff1673ffffffffffffffffffffffffffffffffffffffff1663095ea7b389866040518363ffffffff1660e01b8152600401808373ffffffffffffffffffffffffffffffffffffffff1673ffffffffffffffffffffffffffffffffffffffff16815260200182815260200192505050602060405180830381600087803b15801561143757600080fd5b505af115801561144b573d6000803e3d6000fd5b505050506040513d602081101561146157600080fd5b8101908080519060200190929190505050508773ffffffffffffffffffffffffffffffffffffffff1663b60d42886040518163ffffffff1660e01b8152600401600060405180830381600087803b1580156114bb57600080fd5b505af11580156114cf573d6000803e3d6000fd5b505050506035889080600181540180825580915050600190039060005260206000200160009091909190916101000a81548173ffffffffffffffffffffffffffffffffffffffff021916908373ffffffffffffffffffffffffffffffffffffffff1602179055508773ffffffffffffffffffffffffffffffffffffffff167f5af8184bef8e4b45eb9f6ed7734d04da38ced226495548f46e0c8ff8d7d9a524856040518082815260200191505060405180910390a25050505050505050565b60395481565b603e5481565b6000603f5482101580156115b057506040548211155b9050919050565b6115bf6132eb565b73ffffffffffffffffffffffffffffffffffffffff16603360009054906101000a900473ffffffffffffffffffffffffffffffffffffffff1673ffffffffffffffffffffffffffffffffffffffff1614611681576040517f08c379a00000000000000000000000000000000000000000000000000000000081526004018080602001828103825260208152602001807f4f776e61626c653a2063616c6c6572206973206e6f7420746865206f776e657281525060200191505060405180910390fd5b818110156116da576040517f08c379a00000000000000000000000000000000000000000000000000000000081526004018080602001828103825260358152602001806139196035913960400191505060405180910390fd5b81603f81905550806040819055507f2862378fc1ea993e6eeba10de1be8767247c38ce6f06e5a19cd380abbcd4f4958282604051808381526020018281526020019250505060405180910390a15050565b60008060008090505b603580549050811015611913576119046035828154811061175157fe5b9060005260206000200160009054906101000a900473ffffffffffffffffffffffffffffffffffffffff1673ffffffffffffffffffffffffffffffffffffffff1663c5a46ee6603584815481106117a457fe5b9060005260206000200160009054906101000a900473ffffffffffffffffffffffffffffffffffffffff1673ffffffffffffffffffffffffffffffffffffffff166370a08231306040518263ffffffff1660e01b8152600401808273ffffffffffffffffffffffffffffffffffffffff1673ffffffffffffffffffffffffffffffffffffffff16815260200191505060206040518083038186803b15801561184b57600080fd5b505afa15801561185f573d6000803e3d6000fd5b505050506040513d602081101561187557600080fd5b81019080805190602001909291905050506040518263ffffffff1660e01b81526004018082815260200191505060206040518083038186803b1580156118ba57600080fd5b505afa1580156118ce573d6000803e3d6000fd5b505050506040513d60208110156118e457600080fd5b8101908080519060200190929190505050836132f390919063ffffffff16565b91508080600101915050611734565b508091505090565b80603660006101000a81548173ffffffffffffffffffffffffffffffffffffffff021916908373ffffffffffffffffffffffffffffffffffffffff16021790555050565b600060019054906101000a900460ff168061197e575061197d61337b565b5b8061199557506000809054906101000a900460ff16155b6119ea576040517f08c379a000000000000000000000000000000000000000000000000000000000815260040180806020018281038252602e8152602001806139cb602e913960400191505060405180910390fd5b60008060019054906101000a900460ff161590508015611a3a576001600060016101000a81548160ff02191690831515021790555060016000806101000a81548160ff0219169083151502179055505b611a42613392565b82603660006101000a81548173ffffffffffffffffffffffffffffffffffffffff021916908373ffffffffffffffffffffffffffffffffffffffff1602179055508273ffffffffffffffffffffffffffffffffffffffff16636b2fa3746040518163ffffffff1660e01b815260040160206040518083038186803b158015611ac957600080fd5b505afa158015611add573d6000803e3d6000fd5b505050506040513d6020811015611af357600080fd5b8101908080519060200190929190505050603760006101000a81548173ffffffffffffffffffffffffffffffffffffffff021916908373ffffffffffffffffffffffffffffffffffffffff160217905550603760009054906101000a900473ffffffffffffffffffffffffffffffffffffffff1673ffffffffffffffffffffffffffffffffffffffff1663095ea7b3847fffffffffffffffffffffffffffffffffffffffffffffffffffffffffffffffff6040518363ffffffff1660e01b8152600401808373ffffffffffffffffffffffffffffffffffffffff1673ffffffffffffffffffffffffffffffffffffffff16815260200182815260200192505050602060405180830381600087803b158015611c0d57600080fd5b505af1158015611c21573d6000803e3d6000fd5b505050506040513d6020811015611c3757600080fd5b81019080805190602001909291905050505081603860006101000a81548173ffffffffffffffffffffffffffffffffffffffff021916908373ffffffffffffffffffffffffffffffffffffffff1602179055508015611cab5760008060016101000a81548160ff0219169083151502179055505b505050565b60006039548210158015611cc65750603a548211155b9050919050565b603760009054906101000a900473ffffffffffffffffffffffffffffffffffffffff1681565b611cfb6132eb565b73ffffffffffffffffffffffffffffffffffffffff16603360009054906101000a900473ffffffffffffffffffffffffffffffffffffffff1673ffffffffffffffffffffffffffffffffffffffff1614611dbd576040517f08c379a00000000000000000000000000000000000000000000000000000000081526004018080602001828103825260208152602001807f4f776e61626c653a2063616c6c6572206973206e6f7420746865206f776e657281525060200191505060405180910390fd5b600073ffffffffffffffffffffffffffffffffffffffff16603360009054906101000a900473ffffffffffffffffffffffffffffffffffffffff1673ffffffffffffffffffffffffffffffffffffffff167f8be0079c531659141344cd1fd0a4f28419497f9722a3daafe3b4186f6b6457e060405160405180910390a36000603360006101000a81548173ffffffffffffffffffffffffffffffffffffffff021916908373ffffffffffffffffffffffffffffffffffffffff160217905550565b611e866132eb565b73ffffffffffffffffffffffffffffffffffffffff16603360009054906101000a900473ffffffffffffffffffffffffffffffffffffffff1673ffffffffffffffffffffffffffffffffffffffff1614611f48576040517f08c379a00000000000000000000000000000000000000000000000000000000081526004018080602001828103825260208152602001807f4f776e61626c653a2063616c6c6572206973206e6f7420746865206f776e657281525060200191505060405180910390fd5b81811015611fa1576040517f08c379a00000000000000000000000000000000000000000000000000000000081526004018080602001828103825260358152602001806139756035913960400191505060405180910390fd5b81603d8190555080603e819055507fbcdd91bffcc84b0603f70340297adc4d3ddeaec3f2e5da28f17a2f74c62e934a8282604051808381526020018281526020019250505060405180910390a15050565b603c5481565b6120006132eb565b73ffffffffffffffffffffffffffffffffffffffff16603360009054906101000a900473ffffffffffffffffffffffffffffffffffffffff1673ffffffffffffffffffffffffffffffffffffffff16146120c2576040517f08c379a00000000000000000000000000000000000000000000000000000000081526004018080602001828103825260208152602001807f4f776e61626c653a2063616c6c6572206973206e6f7420746865206f776e657281525060200191505060405180910390fd5b8181101561211b576040517f08c379a000000000000000000000000000000000000000000000000000000000815260040180806020018281038252602f8152602001806138ea602f913960400191505060405180910390fd5b8160398190555080603a819055507f1cccf6af6bc641894c4e6802140356ca72532826c45c4f6ef4fd194a6fba85548282604051808381526020018281526020019250505060405180910390a15050565b6121746132eb565b73ffffffffffffffffffffffffffffffffffffffff16603360009054906101000a900473ffffffffffffffffffffffffffffffffffffffff1673ffffffffffffffffffffffffffffffffffffffff1614612236576040517f08c379a00000000000000000000000000000000000000000000000000000000081526004018080602001828103825260208152602001807f4f776e61626c653a2063616c6c6572206973206e6f7420746865206f776e657281525060200191505060405180910390fd5b80603b819055507f52adf3a354ff2b9d94a1566a163a02d578a5eff4118a308db15c7bd3a67305b5816040518082815260200191505060405180910390a150565b600061228e603c548361353a90919063ffffffff16565b6122c96301da9c006122bb866122ad898b61353a90919063ffffffff16565b61353a90919063ffffffff16565b6135c090919063ffffffff16565b10159050949350505050565b6000603360009054906101000a900473ffffffffffffffffffffffffffffffffffffffff16905090565b6000603d5482101580156123155750603e548211155b9050919050565b603f5481565b603860009054906101000a900473ffffffffffffffffffffffffffffffffffffffff1681565b60346020528060005260406000206000915054906101000a900460ff1681565b60405481565b603660009054906101000a900473ffffffffffffffffffffffffffffffffffffffff1673ffffffffffffffffffffffffffffffffffffffff163373ffffffffffffffffffffffffffffffffffffffff1614612431576040517f08c379a00000000000000000000000000000000000000000000000000000000081526004018080602001828103825260208152602001807f547275654c656e6465723a2053656e646572206973206e6f74206120706f6f6c81525060200191505060405180910390fd5b60008090505b60358054905081101561265d576035818154811061245157fe5b9060005260206000200160009054906101000a900473ffffffffffffffffffffffffffffffffffffffff1673ffffffffffffffffffffffffffffffffffffffff1663a9059cbb856125ab8561259d603587815481106124ac57fe5b9060005260206000200160009054906101000a900473ffffffffffffffffffffffffffffffffffffffff1673ffffffffffffffffffffffffffffffffffffffff166370a08231306040518263ffffffff1660e01b8152600401808273ffffffffffffffffffffffffffffffffffffffff1673ffffffffffffffffffffffffffffffffffffffff16815260200191505060206040518083038186803b15801561255357600080fd5b505afa158015612567573d6000803e3d6000fd5b505050506040513d602081101561257d57600080fd5b81019080805190602001909291905050508961353a90919063ffffffff16565b6135c090919063ffffffff16565b6040518363ffffffff1660e01b8152600401808373ffffffffffffffffffffffffffffffffffffffff1673ffffffffffffffffffffffffffffffffffffffff16815260200182815260200192505050602060405180830381600087803b15801561261457600080fd5b505af1158015612628573d6000803e3d6000fd5b505050506040513d602081101561263e57600080fd5b8101908080519060200190929190505050508080600101915050612437565b50505050565b606060358054806020026020016040519081016040528092919081815260200182805480156126e757602002820191906000526020600020905b8160009054906101000a900473ffffffffffffffffffffffffffffffffffffffff1673ffffffffffffffffffffffffffffffffffffffff168152602001906001019080831161269d575b5050505050905090565b6126f96132eb565b73ffffffffffffffffffffffffffffffffffffffff16603360009054906101000a900473ffffffffffffffffffffffffffffffffffffffff1673ffffffffffffffffffffffffffffffffffffffff16146127bb576040517f08c379a00000000000000000000000000000000000000000000000000000000081526004018080602001828103825260208152602001807f4f776e61626c653a2063616c6c6572206973206e6f7420746865206f776e657281525060200191505060405180910390fd5b806041819055507f80de61ff4315232cb8f8914c01ec01d87aaf9714a379151c9cf5ccaba20c7390816040518082815260200191505060405180910390a150565b6128046132eb565b73ffffffffffffffffffffffffffffffffffffffff16603360009054906101000a900473ffffffffffffffffffffffffffffffffffffffff1673ffffffffffffffffffffffffffffffffffffffff16146128c6576040517f08c379a00000000000000000000000000000000000000000000000000000000081526004018080602001828103825260208152602001807f4f776e61626c653a2063616c6c6572206973206e6f7420746865206f776e657281525060200191505060405180910390fd5b600073ffffffffffffffffffffffffffffffffffffffff168173ffffffffffffffffffffffffffffffffffffffff16141561294c576040517f08c379a000000000000000000000000000000000000000000000000000000000815260040180806020018281038252602681526020018061389e6026913960400191505060405180910390fd5b8073ffffffffffffffffffffffffffffffffffffffff16603360009054906101000a900473ffffffffffffffffffffffffffffffffffffffff1673ffffffffffffffffffffffffffffffffffffffff167f8be0079c531659141344cd1fd0a4f28419497f9722a3daafe3b4186f6b6457e060405160405180910390a380603360006101000a81548173ffffffffffffffffffffffffffffffffffffffff021916908373ffffffffffffffffffffffffffffffffffffffff16021790555050565b603a5481565b600042612a2a604154846132f390919063ffffffff16565b11159050919050565b612a3b6132eb565b73ffffffffffffffffffffffffffffffffffffffff16603360009054906101000a900473ffffffffffffffffffffffffffffffffffffffff1673ffffffffffffffffffffffffffffffffffffffff1614612afd576040517f08c379a00000000000000000000000000000000000000000000000000000000081526004018080602001828103825260208152602001807f4f776e61626c653a2063616c6c6572206973206e6f7420746865206f776e657281525060200191505060405180910390fd5b8073ffffffffffffffffffffffffffffffffffffffff16636e31d80a6040518163ffffffff1660e01b815260040160206040518083038186803b158015612b4357600080fd5b505afa158015612b57573d6000803e3d6000fd5b505050506040513d6020811015612b6d57600080fd5b8101908080519060200190929190505050612bd3576040517f08c379a0000000000000000000000000000000000000000000000000000000008152600401808060200182810382526034815260200180613a286034913960400191505060405180910390fd5b60036004811115612be057fe5b8173ffffffffffffffffffffffffffffffffffffffff1663200d2ed26040518163ffffffff1660e01b815260040160206040518083038186803b158015612c2657600080fd5b505afa158015612c3a573d6000803e3d6000fd5b505050506040513d6020811015612c5057600080fd5b81019080805190602001909291905050506004811115612c6c57fe5b1480612d0d5750600480811115612c7f57fe5b8173ffffffffffffffffffffffffffffffffffffffff1663200d2ed26040518163ffffffff1660e01b815260040160206040518083038186803b158015612cc557600080fd5b505afa158015612cd9573d6000803e3d6000fd5b505050506040513d6020811015612cef57600080fd5b81019080805190602001909291905050506004811115612d0b57fe5b145b612d62576040517f08c379a000000000000000000000000000000000000000000000000000000000815260040180806020018281038252602781526020018061394e6027913960400191505060405180910390fd5b6000603760009054906101000a900473ffffffffffffffffffffffffffffffffffffffff1673ffffffffffffffffffffffffffffffffffffffff166370a08231306040518263ffffffff1660e01b8152600401808273ffffffffffffffffffffffffffffffffffffffff1673ffffffffffffffffffffffffffffffffffffffff16815260200191505060206040518083038186803b158015612e0357600080fd5b505afa158015612e17573d6000803e3d6000fd5b505050506040513d6020811015612e2d57600080fd5b810190808051906020019092919050505090508173ffffffffffffffffffffffffffffffffffffffff1663db006a758373ffffffffffffffffffffffffffffffffffffffff166370a08231306040518263ffffffff1660e01b8152600401808273ffffffffffffffffffffffffffffffffffffffff1673ffffffffffffffffffffffffffffffffffffffff16815260200191505060206040518083038186803b158015612ed957600080fd5b505afa158015612eed573d6000803e3d6000fd5b505050506040513d6020811015612f0357600080fd5b81019080805190602001909291905050506040518263ffffffff1660e01b815260040180828152602001915050600060405180830381600087803b158015612f4a57600080fd5b505af1158015612f5e573d6000803e3d6000fd5b505050506000603760009054906101000a900473ffffffffffffffffffffffffffffffffffffffff1673ffffffffffffffffffffffffffffffffffffffff166370a08231306040518263ffffffff1660e01b8152600401808273ffffffffffffffffffffffffffffffffffffffff1673ffffffffffffffffffffffffffffffffffffffff16815260200191505060206040518083038186803b15801561300357600080fd5b505afa158015613017573d6000803e3d6000fd5b505050506040513d602081101561302d57600080fd5b810190808051906020019092919050505090506000613055838361360a90919063ffffffff16565b9050603660009054906101000a900473ffffffffffffffffffffffffffffffffffffffff1673ffffffffffffffffffffffffffffffffffffffff1663371fd8e6826040518263ffffffff1660e01b815260040180828152602001915050600060405180830381600087803b1580156130cc57600080fd5b505af11580156130e0573d6000803e3d6000fd5b5050505060008090505b603580549050811015613249578473ffffffffffffffffffffffffffffffffffffffff166035828154811061311b57fe5b9060005260206000200160009054906101000a900473ffffffffffffffffffffffffffffffffffffffff1673ffffffffffffffffffffffffffffffffffffffff16141561323c5760356001603580549050038154811061317757fe5b9060005260206000200160009054906101000a900473ffffffffffffffffffffffffffffffffffffffff16603582815481106131af57fe5b9060005260206000200160006101000a81548173ffffffffffffffffffffffffffffffffffffffff021916908373ffffffffffffffffffffffffffffffffffffffff160217905550603580548061320257fe5b6001900381819060005260206000200160006101000a81549073ffffffffffffffffffffffffffffffffffffffff02191690559055613249565b80806001019150506130ea565b508373ffffffffffffffffffffffffffffffffffffffff167fcab347be18c8c37ef504626a027a12ea6725f491b5f5b154778d8d0c54f7841e826040518082815260200191505060405180910390a250505050565b60006132cc6402540be4006132be6127108561353a90919063ffffffff16565b61353a90919063ffffffff16565b6132e1603b548561353a90919063ffffffff16565b1115905092915050565b600033905090565b600080828401905083811015613371576040517f08c379a000000000000000000000000000000000000000000000000000000000815260040180806020018281038252601b8152602001807f536166654d6174683a206164646974696f6e206f766572666c6f77000000000081525060200191505060405180910390fd5b8091505092915050565b6000803090506000813b9050600081149250505090565b600060019054906101000a900460ff16806133b157506133b061337b565b5b806133c857506000809054906101000a900460ff16155b61341d576040517f08c379a000000000000000000000000000000000000000000000000000000000815260040180806020018281038252602e8152602001806139cb602e913960400191505060405180910390fd5b60008060019054906101000a900460ff16159050801561346d576001600060016101000a81548160ff02191690831515021790555060016000806101000a81548160ff0219169083151502179055505b60006134776132eb565b905080603360006101000a81548173ffffffffffffffffffffffffffffffffffffffff021916908373ffffffffffffffffffffffffffffffffffffffff1602179055508073ffffffffffffffffffffffffffffffffffffffff16600073ffffffffffffffffffffffffffffffffffffffff167f8be0079c531659141344cd1fd0a4f28419497f9722a3daafe3b4186f6b6457e060405160405180910390a35080156135375760008060016101000a81548160ff0219169083151502179055505b50565b60008083141561354d57600090506135ba565b600082840290508284828161355e57fe5b04146135b5576040517f08c379a00000000000000000000000000000000000000000000000000000000081526004018080602001828103825260218152602001806139aa6021913960400191505060405180910390fd5b809150505b92915050565b600061360283836040518060400160405280601a81526020017f536166654d6174683a206469766973696f6e206279207a65726f000000000000815250613654565b905092915050565b600061364c83836040518060400160405280601e81526020017f536166654d6174683a207375627472616374696f6e206f766572666c6f77000081525061371a565b905092915050565b60008083118290613700576040517f08c379a00000000000000000000000000000000000000000000000000000000081526004018080602001828103825283818151815260200191508051906020019080838360005b838110156136c55780820151818401526020810190506136aa565b50505050905090810190601f1680156136f25780820380516001836020036101000a031916815260200191505b509250505060405180910390fd5b50600083858161370c57fe5b049050809150509392505050565b60008383111582906137c7576040517f08c379a00000000000000000000000000000000000000000000000000000000081526004018080602001828103825283818151815260200191508051906020019080838360005b8381101561378c578082015181840152602081019050613771565b50505050905090810190601f1680156137b95780820380516001836020036101000a031916815260200191505b509250505060405180910390fd5b506000838503905080915050939250505056fe547275654c656e6465723a204f6e6c79204c6f616e546f6b656e732063616e2062652066756e646564547275654c656e6465723a2053656e646572206973206e6f7420616c6c6f77656420746f20626f72726f77547275654c656e6465723a204c6f616e207465726d206973206f7574206f6620626f756e6473547275654c656e6465723a20566f74696e672074696d652069732062656c6f77206d696e696d756d547275654c656e6465723a204c6f616e207269736b20697320746f6f20686967684f776e61626c653a206e6577206f776e657220697320746865207a65726f2061646472657373547275654c656e6465723a204c6f616e2073697a65206973206f7574206f6620626f756e6473547275654c656e6465723a204d6178696d616c2041505920697320736d616c6c6572207468616e206d696e696d616c547275654c656e6465723a204d6178696d616c206c6f616e207465726d20697320736d616c6c6572207468616e206d696e696d616c547275654c656e6465723a204c6f616e546f6b656e206973206e6f7420636c6f73656420796574547275654c656e6465723a204d6178696d616c206c6f616e2073697a6520697320736d616c6c6572207468616e206d696e696d616c536166654d6174683a206d756c7469706c69636174696f6e206f766572666c6f77436f6e747261637420696e7374616e63652068617320616c7265616479206265656e20696e697469616c697a6564547275654c656e6465723a204e6f7420656e6f75676820766f74657320676976656e20666f7220746865206c6f616e547275654c656e6465723a204f6e6c79204c6f616e546f6b656e732063616e206265207573656420746f207265636c61696d6564a26469706673582212201ebcf84346ce2af388eb0c5ef9a1ed19bc166e39d12f05454245850f096baf8564736f6c634300060a0033",
  "linkReferences": {},
  "deployedLinkReferences": {}
}